{
  "contractName": "AddressUtilsMock",
  "abi": [
    {
      "inputs": [
        {
          "internalType": "address",
          "name": "_addr",
          "type": "address"
        }
      ],
      "name": "isContract",
      "outputs": [
        {
          "internalType": "bool",
          "name": "addressCheck",
          "type": "bool"
        }
      ],
      "stateMutability": "view",
      "type": "function"
    }
  ],
  "bytecode": "0x608060405234801561001057600080fd5b506101c6806100206000396000f3fe608060405234801561001057600080fd5b506004361061002b5760003560e01c80631627905514610030575b600080fd5b61004a600480360381019061004591906100e8565b610060565b6040516100579190610120565b60405180910390f35b60006100818273ffffffffffffffffffffffffffffffffffffffff16610088565b9050919050565b60008060007fc5d2460186f7233c927e7db2dcc703c0e500b653ca82273b7bfad8045d85a47060001b9050833f91506000801b82141580156100ca5750808214155b92505050919050565b6000813590506100e281610179565b92915050565b6000602082840312156100fa57600080fd5b6000610108848285016100d3565b91505092915050565b61011a8161014d565b82525050565b60006020820190506101356000830184610111565b92915050565b600061014682610159565b9050919050565b60008115159050919050565b600073ffffffffffffffffffffffffffffffffffffffff82169050919050565b6101828161013b565b811461018d57600080fd5b5056fea2646970667358221220e57032a96f857ee14e4b446b58e38c702d54ea80def61533b0b5de6294934d8964736f6c63430008000033",
  "immutableReferences": {},
  "source": "// SPDX-License-Identifier: MIT\npragma solidity 0.8.0;\n\nimport \"../../contracts/utils/address-utils.sol\";\n\ncontract AddressUtilsMock {\n  using AddressUtils for address;\n\n  function isContract(\n    address _addr\n  )\n    external\n    view\n    returns (bool addressCheck)\n  {\n    addressCheck = _addr.isContract();\n  }\n}\n",
  "sourcePath": "/home/madhavan/work/topcommits/contract/contracts/ethereum-erc721/src/tests/mocks/address-utils-mock.sol",
  "compiler": {
    "name": "solc",
    "version": "0.8.0+commit.c7dfd78e.Emscripten.clang"
  },
  "schemaVersion": "3.4.1",
  "updatedAt": "2021-06-18T14:37:20.078Z",
  "devdoc": {
    "kind": "dev",
    "methods": {},
    "version": 1
  },
  "userdoc": {
    "kind": "user",
    "methods": {},
    "version": 1
  }
}