{
  "contractName": "TopCommitMarketplace",
  "abi": [
    {
      "inputs": [],
      "stateMutability": "nonpayable",
      "type": "constructor"
    },
    {
      "anonymous": false,
      "inputs": [
        {
          "indexed": true,
          "internalType": "address",
          "name": "_owner",
          "type": "address"
        },
        {
          "indexed": true,
          "internalType": "address",
          "name": "_approved",
          "type": "address"
        },
        {
          "indexed": true,
          "internalType": "uint256",
          "name": "_tokenId",
          "type": "uint256"
        }
      ],
      "name": "Approval",
      "type": "event"
    },
    {
      "anonymous": false,
      "inputs": [
        {
          "indexed": true,
          "internalType": "address",
          "name": "_owner",
          "type": "address"
        },
        {
          "indexed": true,
          "internalType": "address",
          "name": "_operator",
          "type": "address"
        },
        {
          "indexed": false,
          "internalType": "bool",
          "name": "_approved",
          "type": "bool"
        }
      ],
      "name": "ApprovalForAll",
      "type": "event"
    },
    {
      "anonymous": false,
      "inputs": [
        {
          "indexed": false,
          "internalType": "uint256",
          "name": "nftPublicKey",
          "type": "uint256"
        },
        {
          "indexed": false,
          "internalType": "uint256",
          "name": "amount",
          "type": "uint256"
        },
        {
          "indexed": false,
          "internalType": "address",
          "name": "user",
          "type": "address"
        }
      ],
      "name": "BidMade",
      "type": "event"
    },
    {
      "anonymous": false,
      "inputs": [
        {
          "indexed": false,
          "internalType": "uint256",
          "name": "nftPublicKey",
          "type": "uint256"
        },
        {
          "indexed": false,
          "internalType": "address",
          "name": "user",
          "type": "address"
        },
        {
          "indexed": false,
          "internalType": "uint256",
          "name": "amount",
          "type": "uint256"
        }
      ],
      "name": "Claimed",
      "type": "event"
    },
    {
      "anonymous": false,
      "inputs": [
        {
          "indexed": true,
          "internalType": "address",
          "name": "previousOwner",
          "type": "address"
        },
        {
          "indexed": true,
          "internalType": "address",
          "name": "newOwner",
          "type": "address"
        }
      ],
      "name": "OwnershipTransferred",
      "type": "event"
    },
    {
      "anonymous": false,
      "inputs": [
        {
          "indexed": true,
          "internalType": "address",
          "name": "_from",
          "type": "address"
        },
        {
          "indexed": true,
          "internalType": "address",
          "name": "_to",
          "type": "address"
        },
        {
          "indexed": true,
          "internalType": "uint256",
          "name": "_tokenId",
          "type": "uint256"
        }
      ],
      "name": "Transfer",
      "type": "event"
    },
    {
      "anonymous": false,
      "inputs": [
        {
          "indexed": false,
          "internalType": "uint256",
          "name": "nftPublicKey",
          "type": "uint256"
        },
        {
          "indexed": false,
          "internalType": "address",
          "name": "user",
          "type": "address"
        }
      ],
      "name": "Withdrawn",
      "type": "event"
    },
    {
      "anonymous": false,
      "inputs": [
        {
          "indexed": false,
          "internalType": "address",
          "name": "s",
          "type": "address"
        }
      ],
      "name": "log_address",
      "type": "event"
    },
    {
      "anonymous": false,
      "inputs": [
        {
          "indexed": false,
          "internalType": "bytes32",
          "name": "s",
          "type": "bytes32"
        }
      ],
      "name": "log_bytes32",
      "type": "event"
    },
    {
      "inputs": [],
      "name": "CANNOT_TRANSFER_TO_ZERO_ADDRESS",
      "outputs": [
        {
          "internalType": "string",
          "name": "",
          "type": "string"
        }
      ],
      "stateMutability": "view",
      "type": "function",
      "constant": true
    },
    {
      "inputs": [],
      "name": "NOT_CURRENT_OWNER",
      "outputs": [
        {
          "internalType": "string",
          "name": "",
          "type": "string"
        }
      ],
      "stateMutability": "view",
      "type": "function",
      "constant": true
    },
    {
      "inputs": [
        {
          "internalType": "address",
          "name": "_approved",
          "type": "address"
        },
        {
          "internalType": "uint256",
          "name": "_tokenId",
          "type": "uint256"
        }
      ],
      "name": "approve",
      "outputs": [],
      "stateMutability": "nonpayable",
      "type": "function"
    },
    {
      "inputs": [
        {
          "internalType": "address",
          "name": "_owner",
          "type": "address"
        }
      ],
      "name": "balanceOf",
      "outputs": [
        {
          "internalType": "uint256",
          "name": "",
          "type": "uint256"
        }
      ],
      "stateMutability": "view",
      "type": "function",
      "constant": true
    },
    {
      "inputs": [
        {
          "internalType": "uint256",
          "name": "_tokenId",
          "type": "uint256"
        }
      ],
      "name": "getApproved",
      "outputs": [
        {
          "internalType": "address",
          "name": "",
          "type": "address"
        }
      ],
      "stateMutability": "view",
      "type": "function",
      "constant": true
    },
    {
      "inputs": [
        {
          "internalType": "address",
          "name": "_owner",
          "type": "address"
        },
        {
          "internalType": "address",
          "name": "_operator",
          "type": "address"
        }
      ],
      "name": "isApprovedForAll",
      "outputs": [
        {
          "internalType": "bool",
          "name": "",
          "type": "bool"
        }
      ],
      "stateMutability": "view",
      "type": "function",
      "constant": true
    },
    {
      "inputs": [],
      "name": "name",
      "outputs": [
        {
          "internalType": "string",
          "name": "_name",
          "type": "string"
        }
      ],
      "stateMutability": "view",
      "type": "function",
      "constant": true
    },
    {
      "inputs": [],
      "name": "owner",
      "outputs": [
        {
          "internalType": "address",
          "name": "",
          "type": "address"
        }
      ],
      "stateMutability": "view",
      "type": "function",
      "constant": true
    },
    {
      "inputs": [
        {
          "internalType": "uint256",
          "name": "_tokenId",
          "type": "uint256"
        }
      ],
      "name": "ownerOf",
      "outputs": [
        {
          "internalType": "address",
          "name": "_owner",
          "type": "address"
        }
      ],
      "stateMutability": "view",
      "type": "function",
      "constant": true
    },
    {
      "inputs": [
        {
          "internalType": "address",
          "name": "_from",
          "type": "address"
        },
        {
          "internalType": "address",
          "name": "_to",
          "type": "address"
        },
        {
          "internalType": "uint256",
          "name": "_tokenId",
          "type": "uint256"
        }
      ],
      "name": "safeTransferFrom",
      "outputs": [],
      "stateMutability": "nonpayable",
      "type": "function"
    },
    {
      "inputs": [
        {
          "internalType": "address",
          "name": "_from",
          "type": "address"
        },
        {
          "internalType": "address",
          "name": "_to",
          "type": "address"
        },
        {
          "internalType": "uint256",
          "name": "_tokenId",
          "type": "uint256"
        },
        {
          "internalType": "bytes",
          "name": "_data",
          "type": "bytes"
        }
      ],
      "name": "safeTransferFrom",
      "outputs": [],
      "stateMutability": "nonpayable",
      "type": "function"
    },
    {
      "inputs": [
        {
          "internalType": "address",
          "name": "_operator",
          "type": "address"
        },
        {
          "internalType": "bool",
          "name": "_approved",
          "type": "bool"
        }
      ],
      "name": "setApprovalForAll",
      "outputs": [],
      "stateMutability": "nonpayable",
      "type": "function"
    },
    {
      "inputs": [
        {
          "internalType": "bytes4",
          "name": "_interfaceID",
          "type": "bytes4"
        }
      ],
      "name": "supportsInterface",
      "outputs": [
        {
          "internalType": "bool",
          "name": "",
          "type": "bool"
        }
      ],
      "stateMutability": "view",
      "type": "function",
      "constant": true
    },
    {
      "inputs": [],
      "name": "symbol",
      "outputs": [
        {
          "internalType": "string",
          "name": "_symbol",
          "type": "string"
        }
      ],
      "stateMutability": "view",
      "type": "function",
      "constant": true
    },
    {
      "inputs": [
        {
          "internalType": "uint256",
          "name": "_tokenId",
          "type": "uint256"
        }
      ],
      "name": "tokenURI",
      "outputs": [
        {
          "internalType": "string",
          "name": "",
          "type": "string"
        }
      ],
      "stateMutability": "view",
      "type": "function",
      "constant": true
    },
    {
      "inputs": [
        {
          "internalType": "address",
          "name": "_from",
          "type": "address"
        },
        {
          "internalType": "address",
          "name": "_to",
          "type": "address"
        },
        {
          "internalType": "uint256",
          "name": "_tokenId",
          "type": "uint256"
        }
      ],
      "name": "transferFrom",
      "outputs": [],
      "stateMutability": "nonpayable",
      "type": "function"
    },
    {
      "inputs": [
        {
          "internalType": "address",
          "name": "_newOwner",
          "type": "address"
        }
      ],
      "name": "transferOwnership",
      "outputs": [],
      "stateMutability": "nonpayable",
      "type": "function"
    },
    {
      "inputs": [
        {
          "internalType": "bytes32",
          "name": "hash",
          "type": "bytes32"
        },
        {
          "internalType": "bytes",
          "name": "sig",
          "type": "bytes"
        }
      ],
      "name": "getSigner",
      "outputs": [
        {
          "internalType": "address",
          "name": "",
          "type": "address"
        }
      ],
      "stateMutability": "pure",
      "type": "function",
      "constant": true
    },
    {
      "inputs": [
        {
          "internalType": "uint256",
          "name": "nftPublicKey",
          "type": "uint256"
        },
        {
          "internalType": "string",
          "name": "uri",
          "type": "string"
        },
        {
          "internalType": "bytes",
          "name": "signature",
          "type": "bytes"
        }
      ],
      "name": "bid",
      "outputs": [],
      "stateMutability": "payable",
      "type": "function",
      "payable": true
    },
    {
      "inputs": [
        {
          "internalType": "uint256",
          "name": "nftPublicKey",
          "type": "uint256"
        }
      ],
      "name": "getBid",
      "outputs": [
        {
          "internalType": "uint256",
          "name": "",
          "type": "uint256"
        }
      ],
      "stateMutability": "view",
      "type": "function",
      "constant": true
    },
    {
      "inputs": [
        {
          "internalType": "uint256",
          "name": "nftPublicKey",
          "type": "uint256"
        }
      ],
      "name": "getAuctionStart",
      "outputs": [
        {
          "internalType": "uint256",
          "name": "",
          "type": "uint256"
        }
      ],
      "stateMutability": "view",
      "type": "function",
      "constant": true
    },
    {
      "inputs": [
        {
          "internalType": "uint32",
          "name": "percentage",
          "type": "uint32"
        }
      ],
      "name": "setTransactionFeesPercentage",
      "outputs": [],
      "stateMutability": "nonpayable",
      "type": "function"
    },
    {
      "inputs": [],
      "name": "getTransactionFeesPercentage",
      "outputs": [
        {
          "internalType": "uint32",
          "name": "",
          "type": "uint32"
        }
      ],
      "stateMutability": "view",
      "type": "function",
      "constant": true
    },
    {
      "inputs": [
        {
          "internalType": "uint256",
          "name": "nftPublicKey",
          "type": "uint256"
        }
      ],
      "name": "withdraw",
      "outputs": [],
      "stateMutability": "payable",
      "type": "function",
      "payable": true
    },
    {
      "inputs": [
        {
          "internalType": "uint256",
          "name": "nftPublicKey",
          "type": "uint256"
        }
      ],
      "name": "getWinningBidAddress",
      "outputs": [
        {
          "internalType": "address payable",
          "name": "",
          "type": "address"
        }
      ],
      "stateMutability": "view",
      "type": "function",
      "constant": true
    },
    {
      "inputs": [
        {
          "internalType": "uint256",
          "name": "nftPublicKey",
          "type": "uint256"
        }
      ],
      "name": "getWinningBidAmount",
      "outputs": [
        {
          "internalType": "uint256",
          "name": "",
          "type": "uint256"
        }
      ],
      "stateMutability": "view",
      "type": "function",
      "constant": true
    },
    {
      "inputs": [
        {
          "internalType": "uint256",
          "name": "nftPublicKey",
          "type": "uint256"
        },
        {
          "internalType": "bytes",
          "name": "signature",
          "type": "bytes"
        }
      ],
      "name": "claim",
      "outputs": [],
      "stateMutability": "nonpayable",
      "type": "function"
    },
    {
      "inputs": [],
      "name": "getOwnerBalance",
      "outputs": [
        {
          "internalType": "uint256",
          "name": "",
          "type": "uint256"
        }
      ],
      "stateMutability": "view",
      "type": "function",
      "constant": true
    },
    {
      "inputs": [],
      "name": "withdrawOnwerBalance",
      "outputs": [],
      "stateMutability": "nonpayable",
      "type": "function"
    },
    {
      "inputs": [],
      "name": "getOwner",
      "outputs": [
        {
          "internalType": "address payable",
          "name": "",
          "type": "address"
        }
      ],
      "stateMutability": "view",
      "type": "function",
      "constant": true
    },
    {
      "inputs": [
        {
          "internalType": "uint256",
          "name": "length",
          "type": "uint256"
        }
      ],
      "name": "setAuctionLength",
      "outputs": [],
      "stateMutability": "nonpayable",
      "type": "function"
    },
    {
      "inputs": [],
      "name": "getAuctionLength",
      "outputs": [
        {
          "internalType": "uint256",
          "name": "",
          "type": "uint256"
        }
      ],
      "stateMutability": "view",
      "type": "function",
      "constant": true
    },
    {
      "inputs": [
        {
          "internalType": "uint256",
          "name": "nftPublicKey",
          "type": "uint256"
        }
      ],
      "name": "test1",
      "outputs": [
        {
          "internalType": "uint256",
          "name": "",
          "type": "uint256"
        }
      ],
      "stateMutability": "nonpayable",
      "type": "function"
    },
    {
      "inputs": [
        {
          "internalType": "uint256",
          "name": "nftPublicKey",
          "type": "uint256"
        }
      ],
      "name": "test2",
      "outputs": [
        {
          "internalType": "bool",
          "name": "",
          "type": "bool"
        }
      ],
      "stateMutability": "nonpayable",
      "type": "function"
    },
    {
      "inputs": [
        {
          "internalType": "uint256",
          "name": "nftPublicKey",
          "type": "uint256"
        },
        {
          "internalType": "bytes",
          "name": "signature",
          "type": "bytes"
        }
      ],
      "name": "test3",
      "outputs": [
        {
          "internalType": "address",
          "name": "",
          "type": "address"
        }
      ],
      "stateMutability": "nonpayable",
      "type": "function"
    },
    {
      "inputs": [
        {
          "internalType": "uint256",
          "name": "p1",
          "type": "uint256"
        }
      ],
      "name": "test4",
      "outputs": [],
      "stateMutability": "nonpayable",
      "type": "function"
    },
    {
      "inputs": [
        {
          "internalType": "uint256",
          "name": "nftPublicKey",
          "type": "uint256"
        },
        {
          "internalType": "bytes",
          "name": "signature",
          "type": "bytes"
        },
        {
          "internalType": "address",
          "name": "sender",
          "type": "address"
        }
      ],
      "name": "claimAdmin",
      "outputs": [],
      "stateMutability": "nonpayable",
      "type": "function"
    }
  ],
  "bytecode": "0x60806040523480156200001157600080fd5b5060016000806301ffc9a760e01b7bffffffffffffffffffffffffffffffffffffffffffffffffffffffff1916815260200190815260200160002060006101000a81548160ff02191690831515021790555060016000806380ac58cd60e01b7bffffffffffffffffffffffffffffffffffffffffffffffffffffffff1916815260200190815260200160002060006101000a81548160ff0219169083151502179055506001600080635b5e139f60e01b7bffffffffffffffffffffffffffffffffffffffffffffffffffffffff1916815260200190815260200160002060006101000a81548160ff02191690831515021790555033600860006101000a81548173ffffffffffffffffffffffffffffffffffffffff021916908373ffffffffffffffffffffffffffffffffffffffff16021790555033600960006101000a81548173ffffffffffffffffffffffffffffffffffffffff021916908373ffffffffffffffffffffffffffffffffffffffff1602179055506000600860146101000a81548163ffffffff021916908363ffffffff1602179055506000600a819055506000600b819055506040518060400160405280601881526020017f546f7020436f6d6d697473206279205175657374626f6f6b000000000000000081525060059080519060200190620002069291906200025b565b506040518060400160405280600381526020017f544351000000000000000000000000000000000000000000000000000000000081525060069080519060200190620002549291906200025b565b5062000370565b82805462000269906200030b565b90600052602060002090601f0160209004810192826200028d5760008555620002d9565b82601f10620002a857805160ff1916838001178555620002d9565b82800160010185558215620002d9579182015b82811115620002d8578251825591602001919060010190620002bb565b5b509050620002e89190620002ec565b5090565b5b8082111562000307576000816000905550600101620002ed565b5090565b600060028204905060018216806200032457607f821691505b602082108114156200033b576200033a62000341565b5b50919050565b7f4e487b7100000000000000000000000000000000000000000000000000000000600052602260045260246000fd5b614a3a80620003806000396000f3fe60806040526004361061021a5760003560e01c806370a0823111610123578063b579605b116100ab578063cf47cffe1161006f578063cf47cffe146107ff578063e985e9c51461083c578063f2fde38b14610879578063f3fe3bc3146108a2578063f7b2ec0d146108cd5761021a565b8063b579605b1461070a578063b88d4fde14610733578063bfd67d8b1461075c578063c87b56dd14610785578063caf44683146107c25761021a565b80638da5cb5b116100f25780638da5cb5b14610623578063900b1d9a1461064e57806395d89b4114610679578063a22cb465146106a4578063a3c8fdd8146106cd5761021a565b806370a08231146105675780637542d7fa146105a4578063860d248a146105cd578063893d20e8146105f85761021a565b80633c889e6f116101a6578063590791f211610175578063590791f21461047d57806362b504bf146104a85780636352211e146104d157806365156d311461050e5780636d117c391461052a5761021a565b80633c889e6f146103d55780633fdd1fef1461041257806342842e0e1461043d578063470db0d1146104665761021a565b80631503e4d8116101ed5780631503e4d8146102ed57806319ae89941461032a57806323b872dd146103675780632e1a7d4d1461039057806338926b6d146103ac5761021a565b806301ffc9a71461021f57806306fdde031461025c578063081812fc14610287578063095ea7b3146102c4575b600080fd5b34801561022b57600080fd5b5061024660048036038101906102419190613b3d565b61090a565b604051610253919061424a565b60405180910390f35b34801561026857600080fd5b50610271610971565b60405161027e91906142aa565b60405180910390f35b34801561029357600080fd5b506102ae60048036038101906102a99190613b8f565b610a03565b6040516102bb91906141c8565b60405180910390f35b3480156102d057600080fd5b506102eb60048036038101906102e69190613aad565b610b1e565b005b3480156102f957600080fd5b50610314600480360381019061030f9190613b8f565b610f01565b60405161032191906141e3565b60405180910390f35b34801561033657600080fd5b50610351600480360381019061034c9190613b8f565b610f41565b60405161035e91906143ac565b60405180910390f35b34801561037357600080fd5b5061038e600480360381019061038991906139a2565b610f61565b005b6103aa60048036038101906103a59190613b8f565b6113b3565b005b3480156103b857600080fd5b506103d360048036038101906103ce9190613bb8565b6115ce565b005b3480156103e157600080fd5b506103fc60048036038101906103f79190613b8f565b6117a2565b60405161040991906143ac565b60405180910390f35b34801561041e57600080fd5b506104276117c2565b60405161043491906143ac565b60405180910390f35b34801561044957600080fd5b50610464600480360381019061045f91906139a2565b6117cc565b005b34801561047257600080fd5b5061047b6117ec565b005b34801561048957600080fd5b506104926117ee565b60405161049f91906143ac565b60405180910390f35b3480156104b457600080fd5b506104cf60048036038101906104ca9190613cf2565b6117f8565b005b3480156104dd57600080fd5b506104f860048036038101906104f39190613b8f565b6118f6565b60405161050591906141c8565b60405180910390f35b61052860048036038101906105239190613c73565b6119dc565b005b34801561053657600080fd5b50610551600480360381019061054c9190613b8f565b611d94565b60405161055e91906143ac565b60405180910390f35b34801561057357600080fd5b5061058e6004803603810190610589919061393d565b611db4565b60405161059b91906143ac565b60405180910390f35b3480156105b057600080fd5b506105cb60048036038101906105c69190613c0c565b611e6e565b005b3480156105d957600080fd5b506105e2612043565b6040516105ef91906142aa565b60405180910390f35b34801561060457600080fd5b5061060d61207c565b60405161061a91906141e3565b60405180910390f35b34801561062f57600080fd5b506106386120a6565b60405161064591906141c8565b60405180910390f35b34801561065a57600080fd5b506106636120cc565b6040516106709190614495565b60405180910390f35b34801561068557600080fd5b5061068e6120e6565b60405161069b91906142aa565b60405180910390f35b3480156106b057600080fd5b506106cb60048036038101906106c69190613a71565b612178565b005b3480156106d957600080fd5b506106f460048036038101906106ef9190613b8f565b612275565b60405161070191906143ac565b60405180910390f35b34801561071657600080fd5b50610731600480360381019061072c9190613b8f565b612295565b005b34801561073f57600080fd5b5061075a600480360381019061075591906139f1565b6122f9565b005b34801561076857600080fd5b50610783600480360381019061077e9190613b8f565b612350565b005b34801561079157600080fd5b506107ac60048036038101906107a79190613b8f565b61238f565b6040516107b991906142aa565b60405180910390f35b3480156107ce57600080fd5b506107e960048036038101906107e49190613b8f565b612512565b6040516107f6919061424a565b60405180910390f35b34801561080b57600080fd5b5061082660048036038101906108219190613bb8565b61253f565b60405161083391906141c8565b60405180910390f35b34801561084857600080fd5b50610863600480360381019061085e9190613966565b6125e0565b604051610870919061424a565b60405180910390f35b34801561088557600080fd5b506108a0600480360381019061089b919061393d565b612674565b005b3480156108ae57600080fd5b506108b76128a6565b6040516108c491906142aa565b60405180910390f35b3480156108d957600080fd5b506108f460048036038101906108ef9190613ae9565b6128df565b60405161090191906141c8565b60405180910390f35b6000806000837bffffffffffffffffffffffffffffffffffffffffffffffffffffffff19167bffffffffffffffffffffffffffffffffffffffffffffffffffffffff1916815260200190815260200160002060009054906101000a900460ff169050919050565b60606005805461098090614836565b80601f01602080910402602001604051908101604052809291908181526020018280546109ac90614836565b80156109f95780601f106109ce576101008083540402835291602001916109f9565b820191906000526020600020905b8154815290600101906020018083116109dc57829003601f168201915b5050505050905090565b600081600073ffffffffffffffffffffffffffffffffffffffff166001600083815260200190815260200160002060009054906101000a900473ffffffffffffffffffffffffffffffffffffffff1673ffffffffffffffffffffffffffffffffffffffff1614156040518060400160405280600681526020017f303033303032000000000000000000000000000000000000000000000000000081525090610ae1576040517f08c379a0000000000000000000000000000000000000000000000000000000008152600401610ad891906142aa565b60405180910390fd5b506002600084815260200190815260200160002060009054906101000a900473ffffffffffffffffffffffffffffffffffffffff16915050919050565b8060006001600083815260200190815260200160002060009054906101000a900473ffffffffffffffffffffffffffffffffffffffff1690503373ffffffffffffffffffffffffffffffffffffffff168173ffffffffffffffffffffffffffffffffffffffff161480610c175750600460008273ffffffffffffffffffffffffffffffffffffffff1673ffffffffffffffffffffffffffffffffffffffff16815260200190815260200160002060003373ffffffffffffffffffffffffffffffffffffffff1673ffffffffffffffffffffffffffffffffffffffff16815260200190815260200160002060009054906101000a900460ff165b6040518060400160405280600681526020017f303033303033000000000000000000000000000000000000000000000000000081525090610c8e576040517f08c379a0000000000000000000000000000000000000000000000000000000008152600401610c8591906142aa565b60405180910390fd5b5082600073ffffffffffffffffffffffffffffffffffffffff166001600083815260200190815260200160002060009054906101000a900473ffffffffffffffffffffffffffffffffffffffff1673ffffffffffffffffffffffffffffffffffffffff1614156040518060400160405280600681526020017f303033303032000000000000000000000000000000000000000000000000000081525090610d6b576040517f08c379a0000000000000000000000000000000000000000000000000000000008152600401610d6291906142aa565b60405180910390fd5b5060006001600086815260200190815260200160002060009054906101000a900473ffffffffffffffffffffffffffffffffffffffff1690508073ffffffffffffffffffffffffffffffffffffffff168673ffffffffffffffffffffffffffffffffffffffff1614156040518060400160405280600681526020017f303033303038000000000000000000000000000000000000000000000000000081525090610e4b576040517f08c379a0000000000000000000000000000000000000000000000000000000008152600401610e4291906142aa565b60405180910390fd5b50856002600087815260200190815260200160002060006101000a81548173ffffffffffffffffffffffffffffffffffffffff021916908373ffffffffffffffffffffffffffffffffffffffff160217905550848673ffffffffffffffffffffffffffffffffffffffff168273ffffffffffffffffffffffffffffffffffffffff167f8c5be1e5ebec7d5bd14f71427d1e84f3dd0314c0f7b2291e5b200ac8c7c3b92560405160405180910390a4505050505050565b6000600c600083815260200190815260200160002060000160009054906101000a900473ffffffffffffffffffffffffffffffffffffffff169050919050565b6000600c6000838152602001908152602001600020600101549050919050565b8060006001600083815260200190815260200160002060009054906101000a900473ffffffffffffffffffffffffffffffffffffffff1690503373ffffffffffffffffffffffffffffffffffffffff168173ffffffffffffffffffffffffffffffffffffffff16148061103257503373ffffffffffffffffffffffffffffffffffffffff166002600084815260200190815260200160002060009054906101000a900473ffffffffffffffffffffffffffffffffffffffff1673ffffffffffffffffffffffffffffffffffffffff16145b806110c35750600460008273ffffffffffffffffffffffffffffffffffffffff1673ffffffffffffffffffffffffffffffffffffffff16815260200190815260200160002060003373ffffffffffffffffffffffffffffffffffffffff1673ffffffffffffffffffffffffffffffffffffffff16815260200190815260200160002060009054906101000a900460ff165b6040518060400160405280600681526020017f30303330303400000000000000000000000000000000000000000000000000008152509061113a576040517f08c379a000000000000000000000000000000000000000000000000000000000815260040161113191906142aa565b60405180910390fd5b5082600073ffffffffffffffffffffffffffffffffffffffff166001600083815260200190815260200160002060009054906101000a900473ffffffffffffffffffffffffffffffffffffffff1673ffffffffffffffffffffffffffffffffffffffff1614156040518060400160405280600681526020017f303033303032000000000000000000000000000000000000000000000000000081525090611217576040517f08c379a000000000000000000000000000000000000000000000000000000000815260040161120e91906142aa565b60405180910390fd5b5060006001600086815260200190815260200160002060009054906101000a900473ffffffffffffffffffffffffffffffffffffffff1690508673ffffffffffffffffffffffffffffffffffffffff168173ffffffffffffffffffffffffffffffffffffffff16146040518060400160405280600681526020017f3030333030370000000000000000000000000000000000000000000000000000815250906112f6576040517f08c379a00000000000000000000000000000000000000000000000000000000081526004016112ed91906142aa565b60405180910390fd5b50600073ffffffffffffffffffffffffffffffffffffffff168673ffffffffffffffffffffffffffffffffffffffff1614156040518060400160405280600681526020017f30303330303100000000000000000000000000000000000000000000000000008152509061139f576040517f08c379a000000000000000000000000000000000000000000000000000000000815260040161139691906142aa565b60405180910390fd5b506113aa86866129b2565b50505050505050565b34600a60008282546113c59190614584565b92505081905550600073ffffffffffffffffffffffffffffffffffffffff163373ffffffffffffffffffffffffffffffffffffffff16141561143c576040517f08c379a00000000000000000000000000000000000000000000000000000000081526004016114339061438c565b60405180910390fd5b3373ffffffffffffffffffffffffffffffffffffffff16600c600083815260200190815260200160002060000160009054906101000a900473ffffffffffffffffffffffffffffffffffffffff1673ffffffffffffffffffffffffffffffffffffffff16146114e0576040517f08c379a00000000000000000000000000000000000000000000000000000000081526004016114d7906142cc565b60405180910390fd5b6114ea3382612a67565b61159281600c6000848152602001908152602001600020600201805461150f90614836565b80601f016020809104026020016040519081016040528092919081815260200182805461153b90614836565b80156115885780601f1061155d57610100808354040283529160200191611588565b820191906000526020600020905b81548152906001019060200180831161156b57829003601f168201915b5050505050612c55565b7f8c7cdad0d12a8db3e23561b42da6f10c8137914c97beff202213a410e1f520a381336040516115c39291906143c7565b60405180910390a150565b600082336040516020016115e392919061419c565b60405160208183030381529060405280519060200120905060008160405160200161160e9190614176565b604051602081830303815290604052805190602001209050600860009054906101000a900473ffffffffffffffffffffffffffffffffffffffff1673ffffffffffffffffffffffffffffffffffffffff1661166982856128df565b73ffffffffffffffffffffffffffffffffffffffff16146116bf576040517f08c379a00000000000000000000000000000000000000000000000000000000081526004016116b69061430c565b60405180910390fd5b6001600c600086815260200190815260200160002060030160006101000a81548160ff0219169083151502179055503373ffffffffffffffffffffffffffffffffffffffff166108fc600c6000878152602001908152602001600020600101549081150290604051600060405180830381858888f1935050505015801561174a573d6000803e3d6000fd5b507f4ec90e965519d92681267467f775ada5bd214aa92c0dc93d90a5e880ce9ed0268433600c600088815260200190815260200160002060010154604051611794939291906143f0565b60405180910390a150505050565b6000600c6000838152602001908152602001600020600101549050919050565b6000600b54905090565b6117e783838360405180602001604052806000815250612d5f565b505050565b565b6000600a54905090565b600960009054906101000a900473ffffffffffffffffffffffffffffffffffffffff1673ffffffffffffffffffffffffffffffffffffffff163373ffffffffffffffffffffffffffffffffffffffff1614611888576040517f08c379a000000000000000000000000000000000000000000000000000000000815260040161187f906142ec565b60405180910390fd5b60018163ffffffff1611156118d2576040517f08c379a00000000000000000000000000000000000000000000000000000000081526004016118c99061434c565b60405180910390fd5b80600860146101000a81548163ffffffff021916908363ffffffff16021790555050565b60006001600083815260200190815260200160002060009054906101000a900473ffffffffffffffffffffffffffffffffffffffff169050600073ffffffffffffffffffffffffffffffffffffffff168173ffffffffffffffffffffffffffffffffffffffff1614156040518060400160405280600681526020017f3030333030320000000000000000000000000000000000000000000000000000815250906119d6576040517f08c379a00000000000000000000000000000000000000000000000000000000081526004016119cd91906142aa565b60405180910390fd5b50919050565b6000826040516020016119ef919061415f565b604051602081830303815290604052805190602001209050600081604051602001611a1a9190614176565b6040516020818303038152906040528051906020012090506000611a3e82856128df565b9050600960009054906101000a900473ffffffffffffffffffffffffffffffffffffffff1673ffffffffffffffffffffffffffffffffffffffff168173ffffffffffffffffffffffffffffffffffffffff1614611ad0576040517f08c379a0000000000000000000000000000000000000000000000000000000008152600401611ac79061432c565b60405180910390fd5b600c600087815260200190815260200160002060050160009054906101000a900460ff1615611c0157600a600b600c600089815260200190815260200160002060010154611b1e9190614673565b611b289190614611565b3411611b69576040517f08c379a0000000000000000000000000000000000000000000000000000000008152600401611b609061436c565b60405180910390fd5b600c600087815260200190815260200160002060000160009054906101000a900473ffffffffffffffffffffffffffffffffffffffff1673ffffffffffffffffffffffffffffffffffffffff166108fc600c6000898152602001908152602001600020600101549081150290604051600060405180830381858888f19350505050158015611bfb573d6000803e3d6000fd5b50611ca6565b43600c60008881526020019081526020016000206004018190555084600c60008881526020019081526020016000206002019080519060200190611c469291906136ed565b506000600c600088815260200190815260200160002060030160006101000a81548160ff0219169083151502179055506001600c600088815260200190815260200160002060050160006101000a81548160ff0219169083151502179055505b33600c600088815260200190815260200160002060000160006101000a81548173ffffffffffffffffffffffffffffffffffffffff021916908373ffffffffffffffffffffffffffffffffffffffff1602179055506064600860149054906101000a900463ffffffff16611d1a9190614642565b6001611d269190614701565b63ffffffff1634611d379190614673565b600c6000888152602001908152602001600020600101819055507f2db9bd3d5e680e2159753ffc16e1709fb0e786ca24553a511f64e3c6a7d4b70a863433604051611d849392919061445e565b60405180910390a1505050505050565b6000600c6000838152602001908152602001600020600401549050919050565b60008073ffffffffffffffffffffffffffffffffffffffff168273ffffffffffffffffffffffffffffffffffffffff1614156040518060400160405280600681526020017f303033303031000000000000000000000000000000000000000000000000000081525090611e5d576040517f08c379a0000000000000000000000000000000000000000000000000000000008152600401611e5491906142aa565b60405180910390fd5b50611e678261332d565b9050919050565b60008382604051602001611e8392919061419c565b604051602081830303815290604052805190602001209050600081604051602001611eae9190614176565b604051602081830303815290604052805190602001209050600860009054906101000a900473ffffffffffffffffffffffffffffffffffffffff1673ffffffffffffffffffffffffffffffffffffffff16611f0982866128df565b73ffffffffffffffffffffffffffffffffffffffff1614611f5f576040517f08c379a0000000000000000000000000000000000000000000000000000000008152600401611f569061430c565b60405180910390fd5b6001600c600087815260200190815260200160002060030160006101000a81548160ff0219169083151502179055508273ffffffffffffffffffffffffffffffffffffffff166108fc600c6000888152602001908152602001600020600101549081150290604051600060405180830381858888f19350505050158015611fea573d6000803e3d6000fd5b507f4ec90e965519d92681267467f775ada5bd214aa92c0dc93d90a5e880ce9ed0268584600c600089815260200190815260200160002060010154604051612034939291906143f0565b60405180910390a15050505050565b6040518060400160405280600681526020017f303138303032000000000000000000000000000000000000000000000000000081525081565b6000600960009054906101000a900473ffffffffffffffffffffffffffffffffffffffff16905090565b600860009054906101000a900473ffffffffffffffffffffffffffffffffffffffff1681565b6000600860149054906101000a900463ffffffff16905090565b6060600680546120f590614836565b80601f016020809104026020016040519081016040528092919081815260200182805461212190614836565b801561216e5780601f106121435761010080835404028352916020019161216e565b820191906000526020600020905b81548152906001019060200180831161215157829003601f168201915b5050505050905090565b80600460003373ffffffffffffffffffffffffffffffffffffffff1673ffffffffffffffffffffffffffffffffffffffff16815260200190815260200160002060008473ffffffffffffffffffffffffffffffffffffffff1673ffffffffffffffffffffffffffffffffffffffff16815260200190815260200160002060006101000a81548160ff0219169083151502179055508173ffffffffffffffffffffffffffffffffffffffff163373ffffffffffffffffffffffffffffffffffffffff167f17307eab39ab6107e8899845ad3d59bd9653f200f220920489ca2b5937696c3183604051612269919061424a565b60405180910390a35050565b6000600c6000838152602001908152602001600020600101549050919050565b600960009054906101000a900473ffffffffffffffffffffffffffffffffffffffff1673ffffffffffffffffffffffffffffffffffffffff163373ffffffffffffffffffffffffffffffffffffffff16146122ef57600080fd5b80600b8190555050565b61234985858585858080601f016020809104026020016040519081016040528093929190818152602001838380828437600081840152601f19601f82011690508083019250505050505050612d5f565b5050505050565b7f2db9bd3d5e680e2159753ffc16e1709fb0e786ca24553a511f64e3c6a7d4b70a8160008060405161238493929190614427565b60405180910390a150565b606081600073ffffffffffffffffffffffffffffffffffffffff166001600083815260200190815260200160002060009054906101000a900473ffffffffffffffffffffffffffffffffffffffff1673ffffffffffffffffffffffffffffffffffffffff1614156040518060400160405280600681526020017f30303330303200000000000000000000000000000000000000000000000000008152509061246d576040517f08c379a000000000000000000000000000000000000000000000000000000000815260040161246491906142aa565b60405180910390fd5b5060076000848152602001908152602001600020805461248c90614836565b80601f01602080910402602001604051908101604052809291908181526020018280546124b890614836565b80156125055780601f106124da57610100808354040283529160200191612505565b820191906000526020600020905b8154815290600101906020018083116124e857829003601f168201915b5050505050915050919050565b6000600c600083815260200190815260200160002060030160009054906101000a900460ff169050919050565b600080833360405160200161255592919061419c565b6040516020818303038152906040528051906020012090506000816040516020016125809190614176565b6040516020818303038152906040528051906020012090507f7ae74c527414ae135fd97047b12921a5ec3911b804197855d67e25c7b75ee6f36125c382866128df565b6040516125d091906141c8565b60405180910390a1505092915050565b6000600460008473ffffffffffffffffffffffffffffffffffffffff1673ffffffffffffffffffffffffffffffffffffffff16815260200190815260200160002060008373ffffffffffffffffffffffffffffffffffffffff1673ffffffffffffffffffffffffffffffffffffffff16815260200190815260200160002060009054906101000a900460ff16905092915050565b600860009054906101000a900473ffffffffffffffffffffffffffffffffffffffff1673ffffffffffffffffffffffffffffffffffffffff163373ffffffffffffffffffffffffffffffffffffffff16146040518060400160405280600681526020017f30313830303100000000000000000000000000000000000000000000000000008152509061273c576040517f08c379a000000000000000000000000000000000000000000000000000000000815260040161273391906142aa565b60405180910390fd5b50600073ffffffffffffffffffffffffffffffffffffffff168173ffffffffffffffffffffffffffffffffffffffff1614156040518060400160405280600681526020017f3031383030320000000000000000000000000000000000000000000000000000815250906127e5576040517f08c379a00000000000000000000000000000000000000000000000000000000081526004016127dc91906142aa565b60405180910390fd5b508073ffffffffffffffffffffffffffffffffffffffff16600860009054906101000a900473ffffffffffffffffffffffffffffffffffffffff1673ffffffffffffffffffffffffffffffffffffffff167f8be0079c531659141344cd1fd0a4f28419497f9722a3daafe3b4186f6b6457e060405160405180910390a380600860006101000a81548173ffffffffffffffffffffffffffffffffffffffff021916908373ffffffffffffffffffffffffffffffffffffffff16021790555050565b6040518060400160405280600681526020017f303138303031000000000000000000000000000000000000000000000000000081525081565b60008060008060418551146128fa57600093505050506129ac565b602085015192506040850151915060ff6041860151169050601b8160ff16101561292e57601b8161292b91906145da565b90505b601b8160ff16141580156129465750601c8160ff1614155b1561295757600093505050506129ac565b6001868285856040516000815260200160405260405161297a9493929190614265565b6020604051602081039080840390855afa15801561299c573d6000803e3d6000fd5b5050506020604051035193505050505b92915050565b60006001600083815260200190815260200160002060009054906101000a900473ffffffffffffffffffffffffffffffffffffffff1690506129f382613376565b6129fd81836133af565b612a07838361351a565b818373ffffffffffffffffffffffffffffffffffffffff168273ffffffffffffffffffffffffffffffffffffffff167fddf252ad1be2c89b69c2b068fc378daa952ba7f163c4a11628f55a4df523b3ef60405160405180910390a4505050565b600073ffffffffffffffffffffffffffffffffffffffff168273ffffffffffffffffffffffffffffffffffffffff1614156040518060400160405280600681526020017f303033303031000000000000000000000000000000000000000000000000000081525090612b0f576040517f08c379a0000000000000000000000000000000000000000000000000000000008152600401612b0691906142aa565b60405180910390fd5b50600073ffffffffffffffffffffffffffffffffffffffff166001600083815260200190815260200160002060009054906101000a900473ffffffffffffffffffffffffffffffffffffffff1673ffffffffffffffffffffffffffffffffffffffff16146040518060400160405280600681526020017f303033303036000000000000000000000000000000000000000000000000000081525090612bea576040517f08c379a0000000000000000000000000000000000000000000000000000000008152600401612be191906142aa565b60405180910390fd5b50612bf5828261351a565b808273ffffffffffffffffffffffffffffffffffffffff16600073ffffffffffffffffffffffffffffffffffffffff167fddf252ad1be2c89b69c2b068fc378daa952ba7f163c4a11628f55a4df523b3ef60405160405180910390a45050565b81600073ffffffffffffffffffffffffffffffffffffffff166001600083815260200190815260200160002060009054906101000a900473ffffffffffffffffffffffffffffffffffffffff1673ffffffffffffffffffffffffffffffffffffffff1614156040518060400160405280600681526020017f303033303032000000000000000000000000000000000000000000000000000081525090612d31576040517f08c379a0000000000000000000000000000000000000000000000000000000008152600401612d2891906142aa565b60405180910390fd5b5081600760008581526020019081526020016000209080519060200190612d599291906136ed565b50505050565b8160006001600083815260200190815260200160002060009054906101000a900473ffffffffffffffffffffffffffffffffffffffff1690503373ffffffffffffffffffffffffffffffffffffffff168173ffffffffffffffffffffffffffffffffffffffff161480612e3057503373ffffffffffffffffffffffffffffffffffffffff166002600084815260200190815260200160002060009054906101000a900473ffffffffffffffffffffffffffffffffffffffff1673ffffffffffffffffffffffffffffffffffffffff16145b80612ec15750600460008273ffffffffffffffffffffffffffffffffffffffff1673ffffffffffffffffffffffffffffffffffffffff16815260200190815260200160002060003373ffffffffffffffffffffffffffffffffffffffff1673ffffffffffffffffffffffffffffffffffffffff16815260200190815260200160002060009054906101000a900460ff165b6040518060400160405280600681526020017f303033303034000000000000000000000000000000000000000000000000000081525090612f38576040517f08c379a0000000000000000000000000000000000000000000000000000000008152600401612f2f91906142aa565b60405180910390fd5b5083600073ffffffffffffffffffffffffffffffffffffffff166001600083815260200190815260200160002060009054906101000a900473ffffffffffffffffffffffffffffffffffffffff1673ffffffffffffffffffffffffffffffffffffffff1614156040518060400160405280600681526020017f303033303032000000000000000000000000000000000000000000000000000081525090613015576040517f08c379a000000000000000000000000000000000000000000000000000000000815260040161300c91906142aa565b60405180910390fd5b5060006001600087815260200190815260200160002060009054906101000a900473ffffffffffffffffffffffffffffffffffffffff1690508773ffffffffffffffffffffffffffffffffffffffff168173ffffffffffffffffffffffffffffffffffffffff16146040518060400160405280600681526020017f3030333030370000000000000000000000000000000000000000000000000000815250906130f4576040517f08c379a00000000000000000000000000000000000000000000000000000000081526004016130eb91906142aa565b60405180910390fd5b50600073ffffffffffffffffffffffffffffffffffffffff168773ffffffffffffffffffffffffffffffffffffffff1614156040518060400160405280600681526020017f30303330303100000000000000000000000000000000000000000000000000008152509061319d576040517f08c379a000000000000000000000000000000000000000000000000000000000815260040161319491906142aa565b60405180910390fd5b506131a887876129b2565b6131c78773ffffffffffffffffffffffffffffffffffffffff166136a2565b156133235760008773ffffffffffffffffffffffffffffffffffffffff1663150b7a02338b8a8a6040518563ffffffff1660e01b815260040161320d94939291906141fe565b602060405180830381600087803b15801561322757600080fd5b505af115801561323b573d6000803e3d6000fd5b505050506040513d601f19601f8201168201806040525081019061325f9190613b66565b905063150b7a0260e01b7bffffffffffffffffffffffffffffffffffffffffffffffffffffffff1916817bffffffffffffffffffffffffffffffffffffffffffffffffffffffff1916146040518060400160405280600681526020017f303033303035000000000000000000000000000000000000000000000000000081525090613320576040517f08c379a000000000000000000000000000000000000000000000000000000000815260040161331791906142aa565b60405180910390fd5b50505b5050505050505050565b6000600360008373ffffffffffffffffffffffffffffffffffffffff1673ffffffffffffffffffffffffffffffffffffffff168152602001908152602001600020549050919050565b6002600082815260200190815260200160002060006101000a81549073ffffffffffffffffffffffffffffffffffffffff021916905550565b8173ffffffffffffffffffffffffffffffffffffffff166001600083815260200190815260200160002060009054906101000a900473ffffffffffffffffffffffffffffffffffffffff1673ffffffffffffffffffffffffffffffffffffffff16146040518060400160405280600681526020017f303033303037000000000000000000000000000000000000000000000000000081525090613488576040517f08c379a000000000000000000000000000000000000000000000000000000000815260040161347f91906142aa565b60405180910390fd5b506001600360008473ffffffffffffffffffffffffffffffffffffffff1673ffffffffffffffffffffffffffffffffffffffff16815260200190815260200160002060008282546134d991906146cd565b925050819055506001600082815260200190815260200160002060006101000a81549073ffffffffffffffffffffffffffffffffffffffff02191690555050565b600073ffffffffffffffffffffffffffffffffffffffff166001600083815260200190815260200160002060009054906101000a900473ffffffffffffffffffffffffffffffffffffffff1673ffffffffffffffffffffffffffffffffffffffff16146040518060400160405280600681526020017f3030333030360000000000000000000000000000000000000000000000000000815250906135f4576040517f08c379a00000000000000000000000000000000000000000000000000000000081526004016135eb91906142aa565b60405180910390fd5b50816001600083815260200190815260200160002060006101000a81548173ffffffffffffffffffffffffffffffffffffffff021916908373ffffffffffffffffffffffffffffffffffffffff1602179055506001600360008473ffffffffffffffffffffffffffffffffffffffff1673ffffffffffffffffffffffffffffffffffffffff16815260200190815260200160002060008282546136979190614584565b925050819055505050565b60008060007fc5d2460186f7233c927e7db2dcc703c0e500b653ca82273b7bfad8045d85a47060001b9050833f91506000801b82141580156136e45750808214155b92505050919050565b8280546136f990614836565b90600052602060002090601f01602090048101928261371b5760008555613762565b82601f1061373457805160ff1916838001178555613762565b82800160010185558215613762579182015b82811115613761578251825591602001919060010190613746565b5b50905061376f9190613773565b5090565b5b8082111561378c576000816000905550600101613774565b5090565b60006137a361379e846144e1565b6144b0565b9050828152602081018484840111156137bb57600080fd5b6137c68482856147f4565b509392505050565b60006137e16137dc84614511565b6144b0565b9050828152602081018484840111156137f957600080fd5b6138048482856147f4565b509392505050565b60008135905061381b8161497a565b92915050565b60008135905061383081614991565b92915050565b600081359050613845816149a8565b92915050565b60008135905061385a816149bf565b92915050565b60008151905061386f816149bf565b92915050565b60008083601f84011261388757600080fd5b8235905067ffffffffffffffff8111156138a057600080fd5b6020830191508360018202830111156138b857600080fd5b9250929050565b600082601f8301126138d057600080fd5b81356138e0848260208601613790565b91505092915050565b600082601f8301126138fa57600080fd5b813561390a8482602086016137ce565b91505092915050565b600081359050613922816149d6565b92915050565b600081359050613937816149ed565b92915050565b60006020828403121561394f57600080fd5b600061395d8482850161380c565b91505092915050565b6000806040838503121561397957600080fd5b60006139878582860161380c565b92505060206139988582860161380c565b9150509250929050565b6000806000606084860312156139b757600080fd5b60006139c58682870161380c565b93505060206139d68682870161380c565b92505060406139e786828701613913565b9150509250925092565b600080600080600060808688031215613a0957600080fd5b6000613a178882890161380c565b9550506020613a288882890161380c565b9450506040613a3988828901613913565b935050606086013567ffffffffffffffff811115613a5657600080fd5b613a6288828901613875565b92509250509295509295909350565b60008060408385031215613a8457600080fd5b6000613a928582860161380c565b9250506020613aa385828601613821565b9150509250929050565b60008060408385031215613ac057600080fd5b6000613ace8582860161380c565b9250506020613adf85828601613913565b9150509250929050565b60008060408385031215613afc57600080fd5b6000613b0a85828601613836565b925050602083013567ffffffffffffffff811115613b2757600080fd5b613b33858286016138bf565b9150509250929050565b600060208284031215613b4f57600080fd5b6000613b5d8482850161384b565b91505092915050565b600060208284031215613b7857600080fd5b6000613b8684828501613860565b91505092915050565b600060208284031215613ba157600080fd5b6000613baf84828501613913565b91505092915050565b60008060408385031215613bcb57600080fd5b6000613bd985828601613913565b925050602083013567ffffffffffffffff811115613bf657600080fd5b613c02858286016138bf565b9150509250929050565b600080600060608486031215613c2157600080fd5b6000613c2f86828701613913565b935050602084013567ffffffffffffffff811115613c4c57600080fd5b613c58868287016138bf565b9250506040613c698682870161380c565b9150509250925092565b600080600060608486031215613c8857600080fd5b6000613c9686828701613913565b935050602084013567ffffffffffffffff811115613cb357600080fd5b613cbf868287016138e9565b925050604084013567ffffffffffffffff811115613cdc57600080fd5b613ce8868287016138bf565b9150509250925092565b600060208284031215613d0457600080fd5b6000613d1284828501613928565b91505092915050565b613d2481614747565b82525050565b613d3381614735565b82525050565b613d4a613d4582614735565b614868565b82525050565b613d5981614759565b82525050565b613d6881614765565b82525050565b613d7f613d7a82614765565b61487a565b82525050565b6000613d9082614541565b613d9a8185614557565b9350613daa818560208601614803565b613db38161495c565b840191505092915050565b613dc7816147e2565b82525050565b6000613dd88261454c565b613de28185614568565b9350613df2818560208601614803565b613dfb8161495c565b840191505092915050565b6000613e118261454c565b613e1b8185614579565b9350613e2b818560208601614803565b80840191505092915050565b6000613e44602b83614568565b91507f43616e2062652077697468647261776e206f6e6c79206279207468652077696e60008301527f6e696e67206269646465720000000000000000000000000000000000000000006020830152604082019050919050565b6000613eaa602783614568565b91507f4f6e6c79206f776e657220616c6c6f77656420746f206368616e67652070657260008301527f63656e74616765000000000000000000000000000000000000000000000000006020830152604082019050919050565b6000613f10601c83614579565b91507f19457468657265756d205369676e6564204d6573736167653a0a3332000000006000830152601c82019050919050565b6000613f50603083614568565b91507f4e65656473207369676e61747572652066726f6d206f776e657220746f20636c60008301527f61696d2061756374696f6e2062696473000000000000000000000000000000006020830152604082019050919050565b6000613fb6602c83614568565b91507f4e46542042696473206e65656420746f206265207369676e656420627920636f60008301527f6e7472616374206f776e657200000000000000000000000000000000000000006020830152604082019050919050565b600061401c603283614568565b91507f5472616e73616374696f6e20666565732070657263656e746167652063616e6e60008301527f6f74206265206d6f7265207468616e20312500000000000000000000000000006020830152604082019050919050565b6000614082602883614568565b91507f4269642073686f756c64206265206d6f7265207468616e2031313025206f662060008301527f70726576206269640000000000000000000000000000000000000000000000006020830152604082019050919050565b60006140e8600c83614568565b91507f556e6b6e6f776e207573657200000000000000000000000000000000000000006000830152602082019050919050565b614124816147bb565b82525050565b61413b614136826147bb565b614896565b82525050565b61414a816147c5565b82525050565b614159816147d5565b82525050565b600061416b8284613e06565b915081905092915050565b600061418182613f03565b915061418d8284613d6e565b60208201915081905092915050565b60006141a8828561412a565b6020820191506141b88284613d39565b6014820191508190509392505050565b60006020820190506141dd6000830184613d2a565b92915050565b60006020820190506141f86000830184613d1b565b92915050565b60006080820190506142136000830187613d2a565b6142206020830186613d2a565b61422d604083018561411b565b818103606083015261423f8184613d85565b905095945050505050565b600060208201905061425f6000830184613d50565b92915050565b600060808201905061427a6000830187613d5f565b6142876020830186614150565b6142946040830185613d5f565b6142a16060830184613d5f565b95945050505050565b600060208201905081810360008301526142c48184613dcd565b905092915050565b600060208201905081810360008301526142e581613e37565b9050919050565b6000602082019050818103600083015261430581613e9d565b9050919050565b6000602082019050818103600083015261432581613f43565b9050919050565b6000602082019050818103600083015261434581613fa9565b9050919050565b600060208201905081810360008301526143658161400f565b9050919050565b6000602082019050818103600083015261438581614075565b9050919050565b600060208201905081810360008301526143a5816140db565b9050919050565b60006020820190506143c1600083018461411b565b92915050565b60006040820190506143dc600083018561411b565b6143e96020830184613d2a565b9392505050565b6000606082019050614405600083018661411b565b6144126020830185613d2a565b61441f604083018461411b565b949350505050565b600060608201905061443c600083018661411b565b6144496020830185613dbe565b6144566040830184613d2a565b949350505050565b6000606082019050614473600083018661411b565b614480602083018561411b565b61448d6040830184613d2a565b949350505050565b60006020820190506144aa6000830184614141565b92915050565b6000604051905081810181811067ffffffffffffffff821117156144d7576144d661492d565b5b8060405250919050565b600067ffffffffffffffff8211156144fc576144fb61492d565b5b601f19601f8301169050602081019050919050565b600067ffffffffffffffff82111561452c5761452b61492d565b5b601f19601f8301169050602081019050919050565b600081519050919050565b600081519050919050565b600082825260208201905092915050565b600082825260208201905092915050565b600081905092915050565b600061458f826147bb565b915061459a836147bb565b9250827fffffffffffffffffffffffffffffffffffffffffffffffffffffffffffffffff038211156145cf576145ce6148a0565b5b828201905092915050565b60006145e5826147d5565b91506145f0836147d5565b92508260ff03821115614606576146056148a0565b5b828201905092915050565b600061461c826147bb565b9150614627836147bb565b925082614637576146366148cf565b5b828204905092915050565b600061464d826147c5565b9150614658836147c5565b925082614668576146676148cf565b5b828204905092915050565b600061467e826147bb565b9150614689836147bb565b9250817fffffffffffffffffffffffffffffffffffffffffffffffffffffffffffffffff04831182151516156146c2576146c16148a0565b5b828202905092915050565b60006146d8826147bb565b91506146e3836147bb565b9250828210156146f6576146f56148a0565b5b828203905092915050565b600061470c826147c5565b9150614717836147c5565b92508282101561472a576147296148a0565b5b828203905092915050565b60006147408261479b565b9050919050565b60006147528261479b565b9050919050565b60008115159050919050565b6000819050919050565b60007fffffffff0000000000000000000000000000000000000000000000000000000082169050919050565b600073ffffffffffffffffffffffffffffffffffffffff82169050919050565b6000819050919050565b600063ffffffff82169050919050565b600060ff82169050919050565b60006147ed826147bb565b9050919050565b82818337600083830152505050565b60005b83811015614821578082015181840152602081019050614806565b83811115614830576000848401525b50505050565b6000600282049050600182168061484e57607f821691505b60208210811415614862576148616148fe565b5b50919050565b600061487382614884565b9050919050565b6000819050919050565b600061488f8261496d565b9050919050565b6000819050919050565b7f4e487b7100000000000000000000000000000000000000000000000000000000600052601160045260246000fd5b7f4e487b7100000000000000000000000000000000000000000000000000000000600052601260045260246000fd5b7f4e487b7100000000000000000000000000000000000000000000000000000000600052602260045260246000fd5b7f4e487b7100000000000000000000000000000000000000000000000000000000600052604160045260246000fd5b6000601f19601f8301169050919050565b60008160601b9050919050565b61498381614735565b811461498e57600080fd5b50565b61499a81614759565b81146149a557600080fd5b50565b6149b181614765565b81146149bc57600080fd5b50565b6149c88161476f565b81146149d357600080fd5b50565b6149df816147bb565b81146149ea57600080fd5b50565b6149f6816147c5565b8114614a0157600080fd5b5056fea264697066735822122044910738825a276bad4368d837980c8693a0a3fa1227feacc50cab93c0babd3464736f6c63430008000033",
  "immutableReferences": {},
  "source": "// SPDX-License-Identifier: MIT\npragma solidity >=0.4.22 <0.9.0;\nimport \"./ethereum-erc721/src/contracts/tokens/nf-token-metadata.sol\";\nimport \"./ethereum-erc721/src/contracts/ownership/ownable.sol\";\n\ncontract TopCommitMarketplace is NFTokenMetadata, Ownable{\n    uint32 transactionFeePercentage;\n    address payable private marketplaceOwner;\n    uint256 ownerBalance;\n    uint256 auctionLength;\n    struct Bid {\n        address payable bidder;\n        uint256 bidInWei;\n        string uri;\n        bool claimed;\n        uint256 startBlock;\n        bool flag;\n    }\n    mapping(uint256 => Bid) private auctions;\n    constructor () {\n        marketplaceOwner = payable(msg.sender);\n        transactionFeePercentage = 0;\n        ownerBalance = 0;\n        auctionLength = 0; //blocks\n        nftName = \"Top Commits by Questbook\";\n        nftSymbol = \"TCQ\";\n\n    }\n\n\n  function getSigner(bytes32 hash, bytes memory sig) public pure returns (address) {\n    bytes32 r;\n    bytes32 s;\n    uint8 v;\n\n    if (sig.length != 65) {\n      return address(0);\n    }\n\n    assembly {\n      r := mload(add(sig, 32))\n      s := mload(add(sig, 64))\n      v := and(mload(add(sig, 65)), 255)\n    }\n\n    if (v < 27) {\n      v += 27;\n    }\n\n    if (v != 27 && v != 28) {\n      return address(0);\n    }\n\n    return ecrecover(hash, v, r, s);\n  }\n\n    event BidMade(uint256 nftPublicKey, uint256 amount, address user);\n    function bid(uint256 nftPublicKey, string memory uri, bytes memory signature) public payable {\n        bytes32 uriHash = keccak256(abi.encodePacked(uri));\n        bytes32 messageHash = keccak256(abi.encodePacked(\"\\x19Ethereum Signed Message:\\n32\", uriHash));\n        address nftSigner = getSigner(messageHash, signature);\n        require(nftSigner == marketplaceOwner, \"NFT Bids need to be signed by contract owner\");\n        if(auctions[nftPublicKey].flag){\n            //require(auctions[nftPublicKey].startBlock + auctionLength > block.number, \"Auction has ended\");\n            //require(!auctions[nftPublicKey].claimed, \"This auction has ended\");\n            require(msg.value > auctions[nftPublicKey].bidInWei * 11/10, \"Bid should be more than 110% of prev bid\");\n            //refund\n            auctions[nftPublicKey].bidder.transfer(auctions[nftPublicKey].bidInWei);\n        }\n        else {\n            auctions[nftPublicKey].startBlock = block.number;\n            auctions[nftPublicKey].uri = uri;\n            auctions[nftPublicKey].claimed = false;\n            auctions[nftPublicKey].flag = true;\n        }\n        auctions[nftPublicKey].bidder = payable(msg.sender);\n        auctions[nftPublicKey].bidInWei = msg.value * (1 - transactionFeePercentage/100);\n        emit BidMade(nftPublicKey, msg.value, msg.sender);\n    }\n\n    function getBid(uint256 nftPublicKey) public view  returns(uint256){\n        return auctions[nftPublicKey].bidInWei;\n    }\n\n    function getAuctionStart(uint256 nftPublicKey) public view returns( uint256            ){\n        return auctions[nftPublicKey].startBlock;\n    }\n\n    function setTransactionFeesPercentage(uint32 percentage) public {\n        require(payable(msg.sender) == marketplaceOwner, \"Only owner allowed to change percentage\");\n        require(percentage <= 1, \"Transaction fees percentage cannot be more than 1%\");\n        transactionFeePercentage = percentage;\n    }\n\n    function getTransactionFeesPercentage() public view returns(uint32){\n        return transactionFeePercentage;\n    }\n\n\n\n    event Withdrawn(uint256 nftPublicKey, address user);\n    function withdraw(uint256 nftPublicKey) public payable {\n        ownerBalance += msg.value;\n        require(msg.sender != address(0), \"Unknown user\");\n        //require(auctions[nftPublicKey].startBlock + auctionLength < block.number, \"Can be withdrawn only after the auction has ended\");\n        require(auctions[nftPublicKey].bidder == msg.sender, \"Can be withdrawn only by the winning bidder\");\n        super._mint(msg.sender, nftPublicKey);\n        super._setTokenUri(nftPublicKey, auctions[nftPublicKey].uri);\n        emit Withdrawn(nftPublicKey, msg.sender);\n    }\n\n    function getWinningBidAddress(uint256 nftPublicKey) public view returns(address payable) {\n        return auctions[nftPublicKey].bidder;\n    }\n\n    function getWinningBidAmount(uint256 nftPublicKey) public view returns(uint256){\n        return auctions[nftPublicKey].bidInWei;\n    }\n\n    event Claimed(uint256 nftPublicKey, address user, uint256 amount);\n    function claim(uint256 nftPublicKey, bytes memory signature) public {\n        bytes32 keyHash = keccak256(abi.encodePacked(nftPublicKey, msg.sender));\n        bytes32 messageHash = keccak256(abi.encodePacked(\"\\x19Ethereum Signed Message:\\n32\", keyHash));\n        require(getSigner(messageHash, signature) == owner, \"Needs signature from owner to claim auction bids\");\n        auctions[nftPublicKey].claimed = true;\n        payable(msg.sender).transfer(auctions[nftPublicKey].bidInWei);\n        emit Claimed(nftPublicKey, msg.sender, auctions[nftPublicKey].bidInWei);\n    }\n\n\n    function getOwnerBalance() public view returns(uint256){\n      return ownerBalance;\n    }\n\n    function withdrawOnwerBalance() public {\n\n    }\n\n    function getOwner() public view returns(address payable){\n      return marketplaceOwner;\n    }\n\n    function setAuctionLength(uint256 length) public {\n      require(msg.sender == marketplaceOwner);\n      auctionLength = length;\n    }\n\n    function getAuctionLength() public view returns(uint256) {\n      return auctionLength;\n    }\n\n\n    event log_bytes32(bytes32 s);\n    event log_address(address s);\n    function test1(uint256 nftPublicKey) public returns(uint256){\n      return auctions[nftPublicKey].bidInWei;\n    }\n    function test2(uint256 nftPublicKey) public returns(bool){\n      return auctions[nftPublicKey].claimed;\n    }\n\n    function test3(uint256 nftPublicKey, bytes memory signature) public returns(address){\n        bytes32 keyHash = keccak256(abi.encodePacked(nftPublicKey, msg.sender));\n        bytes32 messageHash = keccak256(abi.encodePacked(\"\\x19Ethereum Signed Message:\\n32\", keyHash));\n        emit log_address(getSigner(messageHash, signature));\n    }\n    function test4(uint256 p1) public {\n      emit BidMade(p1, 0, address(0));\n    }\n    function claimAdmin(uint256 nftPublicKey, bytes memory signature, address sender) public {\n        bytes32 keyHash = keccak256(abi.encodePacked(nftPublicKey, sender));\n        bytes32 messageHash = keccak256(abi.encodePacked(\"\\x19Ethereum Signed Message:\\n32\", keyHash));\n        require(getSigner(messageHash, signature) == owner, \"Needs signature from owner to claim auction bids\");\n        auctions[nftPublicKey].claimed = true;\n        payable(sender).transfer(auctions[nftPublicKey].bidInWei);\n        emit Claimed(nftPublicKey, sender, auctions[nftPublicKey].bidInWei);\n    }\n\n\n}\n\n\n",
  "sourcePath": "/home/madhavan/work/topcommits/contract/contracts/Migrations.sol",
  "compiler": {
    "name": "solc",
    "version": "0.8.0+commit.c7dfd78e.Emscripten.clang"
  },
  "schemaVersion": "3.4.1",
  "updatedAt": "2021-06-20T14:40:00.256Z",
  "networkType": "ethereum",
  "devdoc": {
    "kind": "dev",
    "methods": {
      "approve(address,uint256)": {
        "details": "Set or reaffirm the approved address for an NFT. This function can be changed to payable.",
        "params": {
          "_approved": "Address to be approved for the given NFT ID.",
          "_tokenId": "ID of the token to be approved."
        }
      },
      "balanceOf(address)": {
        "details": "Returns the number of NFTs owned by `_owner`. NFTs assigned to the zero address are considered invalid, and this function throws for queries about the zero address.",
        "params": {
          "_owner": "Address for whom to query the balance."
        },
        "returns": {
          "_0": "Balance of _owner."
        }
      },
      "getApproved(uint256)": {
        "details": "Get the approved address for a single NFT.",
        "params": {
          "_tokenId": "ID of the NFT to query the approval of."
        },
        "returns": {
          "_0": "Address that _tokenId is approved for."
        }
      },
      "isApprovedForAll(address,address)": {
        "details": "Checks if `_operator` is an approved operator for `_owner`.",
        "params": {
          "_operator": "The address that acts on behalf of the owner.",
          "_owner": "The address that owns the NFTs."
        },
        "returns": {
          "_0": "True if approved for all, false otherwise."
        }
      },
      "name()": {
        "details": "Returns a descriptive name for a collection of NFTokens.",
        "returns": {
          "_name": "Representing name."
        }
      },
      "ownerOf(uint256)": {
        "details": "Returns the address of the owner of the NFT. NFTs assigned to the zero address are considered invalid, and queries about them do throw.",
        "params": {
          "_tokenId": "The identifier for an NFT."
        },
        "returns": {
          "_owner": "Address of _tokenId owner."
        }
      },
      "safeTransferFrom(address,address,uint256)": {
        "details": "Transfers the ownership of an NFT from one address to another address. This function can be changed to payable.",
        "params": {
          "_from": "The current owner of the NFT.",
          "_to": "The new owner.",
          "_tokenId": "The NFT to transfer."
        }
      },
      "safeTransferFrom(address,address,uint256,bytes)": {
        "details": "Transfers the ownership of an NFT from one address to another address. This function can be changed to payable.",
        "params": {
          "_data": "Additional data with no specified format, sent in call to `_to`.",
          "_from": "The current owner of the NFT.",
          "_to": "The new owner.",
          "_tokenId": "The NFT to transfer."
        }
      },
      "setApprovalForAll(address,bool)": {
        "details": "Enables or disables approval for a third party (\"operator\") to manage all of `msg.sender`'s assets. It also emits the ApprovalForAll event.",
        "params": {
          "_approved": "True if the operators is approved, false to revoke approval.",
          "_operator": "Address to add to the set of authorized operators."
        }
      },
      "supportsInterface(bytes4)": {
        "details": "Function to check which interfaces are suported by this contract.",
        "params": {
          "_interfaceID": "Id of the interface."
        },
        "returns": {
          "_0": "True if _interfaceID is supported, false otherwise."
        }
      },
      "symbol()": {
        "details": "Returns an abbreviated name for NFTokens.",
        "returns": {
          "_symbol": "Representing symbol."
        }
      },
      "tokenURI(uint256)": {
        "details": "A distinct URI (RFC 3986) for a given NFT.",
        "params": {
          "_tokenId": "Id for which we want uri."
        },
        "returns": {
          "_0": "URI of _tokenId."
        }
      },
      "transferFrom(address,address,uint256)": {
        "details": "Throws unless `msg.sender` is the current owner, an authorized operator, or the approved address for this NFT. Throws if `_from` is not the current owner. Throws if `_to` is the zero address. Throws if `_tokenId` is not a valid NFT. This function can be changed to payable.",
        "params": {
          "_from": "The current owner of the NFT.",
          "_to": "The new owner.",
          "_tokenId": "The NFT to transfer."
        }
      },
      "transferOwnership(address)": {
        "details": "Allows the current owner to transfer control of the contract to a newOwner.",
        "params": {
          "_newOwner": "The address to transfer ownership to."
        }
      }
    },
    "version": 1
  },
  "userdoc": {
    "kind": "user",
    "methods": {
      "approve(address,uint256)": {
        "notice": "The zero address indicates there is no approved address. Throws unless `msg.sender` is the current NFT owner, or an authorized operator of the current owner."
      },
      "getApproved(uint256)": {
        "notice": "Throws if `_tokenId` is not a valid NFT."
      },
      "safeTransferFrom(address,address,uint256)": {
        "notice": "This works identically to the other function with an extra data parameter, except this function just sets data to \"\""
      },
      "safeTransferFrom(address,address,uint256,bytes)": {
        "notice": "Throws unless `msg.sender` is the current owner, an authorized operator, or the approved address for this NFT. Throws if `_from` is not the current owner. Throws if `_to` is the zero address. Throws if `_tokenId` is not a valid NFT. When transfer is complete, this function checks if `_to` is a smart contract (code size > 0). If so, it calls `onERC721Received` on `_to` and throws if the return value is not `bytes4(keccak256(\"onERC721Received(address,uint256,bytes)\"))`."
      },
      "setApprovalForAll(address,bool)": {
        "notice": "This works even if sender doesn't own any tokens at the time."
      },
      "transferFrom(address,address,uint256)": {
        "notice": "The caller is responsible to confirm that `_to` is capable of receiving NFTs or else they may be permanently lost."
      }
    },
    "version": 1
  }
}