{
  "contractName": "TopCommitMarketplace",
  "abi": [
    {
      "inputs": [],
      "stateMutability": "nonpayable",
      "type": "constructor"
    },
    {
      "anonymous": false,
      "inputs": [
        {
          "indexed": true,
          "internalType": "address",
          "name": "_owner",
          "type": "address"
        },
        {
          "indexed": true,
          "internalType": "address",
          "name": "_approved",
          "type": "address"
        },
        {
          "indexed": true,
          "internalType": "uint256",
          "name": "_tokenId",
          "type": "uint256"
        }
      ],
      "name": "Approval",
      "type": "event"
    },
    {
      "anonymous": false,
      "inputs": [
        {
          "indexed": true,
          "internalType": "address",
          "name": "_owner",
          "type": "address"
        },
        {
          "indexed": true,
          "internalType": "address",
          "name": "_operator",
          "type": "address"
        },
        {
          "indexed": false,
          "internalType": "bool",
          "name": "_approved",
          "type": "bool"
        }
      ],
      "name": "ApprovalForAll",
      "type": "event"
    },
    {
      "anonymous": false,
      "inputs": [
        {
          "indexed": false,
          "internalType": "uint256",
          "name": "nftPublicKey",
          "type": "uint256"
        },
        {
          "indexed": false,
          "internalType": "uint256",
          "name": "amount",
          "type": "uint256"
        },
        {
          "indexed": false,
          "internalType": "address",
          "name": "user",
          "type": "address"
        }
      ],
      "name": "BidMade",
      "type": "event"
    },
    {
      "anonymous": false,
      "inputs": [
        {
          "indexed": false,
          "internalType": "uint256",
          "name": "nftPublicKey",
          "type": "uint256"
        },
        {
          "indexed": false,
          "internalType": "address",
          "name": "user",
          "type": "address"
        },
        {
          "indexed": false,
          "internalType": "uint256",
          "name": "amount",
          "type": "uint256"
        }
      ],
      "name": "Claimed",
      "type": "event"
    },
    {
      "anonymous": false,
      "inputs": [
        {
          "indexed": true,
          "internalType": "address",
          "name": "previousOwner",
          "type": "address"
        },
        {
          "indexed": true,
          "internalType": "address",
          "name": "newOwner",
          "type": "address"
        }
      ],
      "name": "OwnershipTransferred",
      "type": "event"
    },
    {
      "anonymous": false,
      "inputs": [
        {
          "indexed": true,
          "internalType": "address",
          "name": "_from",
          "type": "address"
        },
        {
          "indexed": true,
          "internalType": "address",
          "name": "_to",
          "type": "address"
        },
        {
          "indexed": true,
          "internalType": "uint256",
          "name": "_tokenId",
          "type": "uint256"
        }
      ],
      "name": "Transfer",
      "type": "event"
    },
    {
      "anonymous": false,
      "inputs": [
        {
          "indexed": false,
          "internalType": "uint256",
          "name": "nftPublicKey",
          "type": "uint256"
        },
        {
          "indexed": false,
          "internalType": "address",
          "name": "user",
          "type": "address"
        }
      ],
      "name": "Withdrawn",
      "type": "event"
    },
    {
      "inputs": [],
      "name": "CANNOT_TRANSFER_TO_ZERO_ADDRESS",
      "outputs": [
        {
          "internalType": "string",
          "name": "",
          "type": "string"
        }
      ],
      "stateMutability": "view",
      "type": "function",
      "constant": true
    },
    {
      "inputs": [],
      "name": "NOT_CURRENT_OWNER",
      "outputs": [
        {
          "internalType": "string",
          "name": "",
          "type": "string"
        }
      ],
      "stateMutability": "view",
      "type": "function",
      "constant": true
    },
    {
      "inputs": [
        {
          "internalType": "address",
          "name": "_approved",
          "type": "address"
        },
        {
          "internalType": "uint256",
          "name": "_tokenId",
          "type": "uint256"
        }
      ],
      "name": "approve",
      "outputs": [],
      "stateMutability": "nonpayable",
      "type": "function"
    },
    {
      "inputs": [
        {
          "internalType": "address",
          "name": "_owner",
          "type": "address"
        }
      ],
      "name": "balanceOf",
      "outputs": [
        {
          "internalType": "uint256",
          "name": "",
          "type": "uint256"
        }
      ],
      "stateMutability": "view",
      "type": "function",
      "constant": true
    },
    {
      "inputs": [
        {
          "internalType": "uint256",
          "name": "_tokenId",
          "type": "uint256"
        }
      ],
      "name": "getApproved",
      "outputs": [
        {
          "internalType": "address",
          "name": "",
          "type": "address"
        }
      ],
      "stateMutability": "view",
      "type": "function",
      "constant": true
    },
    {
      "inputs": [
        {
          "internalType": "address",
          "name": "_owner",
          "type": "address"
        },
        {
          "internalType": "address",
          "name": "_operator",
          "type": "address"
        }
      ],
      "name": "isApprovedForAll",
      "outputs": [
        {
          "internalType": "bool",
          "name": "",
          "type": "bool"
        }
      ],
      "stateMutability": "view",
      "type": "function",
      "constant": true
    },
    {
      "inputs": [],
      "name": "name",
      "outputs": [
        {
          "internalType": "string",
          "name": "_name",
          "type": "string"
        }
      ],
      "stateMutability": "view",
      "type": "function",
      "constant": true
    },
    {
      "inputs": [],
      "name": "owner",
      "outputs": [
        {
          "internalType": "address",
          "name": "",
          "type": "address"
        }
      ],
      "stateMutability": "view",
      "type": "function",
      "constant": true
    },
    {
      "inputs": [
        {
          "internalType": "uint256",
          "name": "_tokenId",
          "type": "uint256"
        }
      ],
      "name": "ownerOf",
      "outputs": [
        {
          "internalType": "address",
          "name": "_owner",
          "type": "address"
        }
      ],
      "stateMutability": "view",
      "type": "function",
      "constant": true
    },
    {
      "inputs": [
        {
          "internalType": "address",
          "name": "_from",
          "type": "address"
        },
        {
          "internalType": "address",
          "name": "_to",
          "type": "address"
        },
        {
          "internalType": "uint256",
          "name": "_tokenId",
          "type": "uint256"
        }
      ],
      "name": "safeTransferFrom",
      "outputs": [],
      "stateMutability": "nonpayable",
      "type": "function"
    },
    {
      "inputs": [
        {
          "internalType": "address",
          "name": "_from",
          "type": "address"
        },
        {
          "internalType": "address",
          "name": "_to",
          "type": "address"
        },
        {
          "internalType": "uint256",
          "name": "_tokenId",
          "type": "uint256"
        },
        {
          "internalType": "bytes",
          "name": "_data",
          "type": "bytes"
        }
      ],
      "name": "safeTransferFrom",
      "outputs": [],
      "stateMutability": "nonpayable",
      "type": "function"
    },
    {
      "inputs": [
        {
          "internalType": "address",
          "name": "_operator",
          "type": "address"
        },
        {
          "internalType": "bool",
          "name": "_approved",
          "type": "bool"
        }
      ],
      "name": "setApprovalForAll",
      "outputs": [],
      "stateMutability": "nonpayable",
      "type": "function"
    },
    {
      "inputs": [
        {
          "internalType": "bytes4",
          "name": "_interfaceID",
          "type": "bytes4"
        }
      ],
      "name": "supportsInterface",
      "outputs": [
        {
          "internalType": "bool",
          "name": "",
          "type": "bool"
        }
      ],
      "stateMutability": "view",
      "type": "function",
      "constant": true
    },
    {
      "inputs": [],
      "name": "symbol",
      "outputs": [
        {
          "internalType": "string",
          "name": "_symbol",
          "type": "string"
        }
      ],
      "stateMutability": "view",
      "type": "function",
      "constant": true
    },
    {
      "inputs": [
        {
          "internalType": "uint256",
          "name": "_tokenId",
          "type": "uint256"
        }
      ],
      "name": "tokenURI",
      "outputs": [
        {
          "internalType": "string",
          "name": "",
          "type": "string"
        }
      ],
      "stateMutability": "view",
      "type": "function",
      "constant": true
    },
    {
      "inputs": [
        {
          "internalType": "address",
          "name": "_from",
          "type": "address"
        },
        {
          "internalType": "address",
          "name": "_to",
          "type": "address"
        },
        {
          "internalType": "uint256",
          "name": "_tokenId",
          "type": "uint256"
        }
      ],
      "name": "transferFrom",
      "outputs": [],
      "stateMutability": "nonpayable",
      "type": "function"
    },
    {
      "inputs": [
        {
          "internalType": "address",
          "name": "_newOwner",
          "type": "address"
        }
      ],
      "name": "transferOwnership",
      "outputs": [],
      "stateMutability": "nonpayable",
      "type": "function"
    },
    {
      "inputs": [
        {
          "internalType": "bytes32",
          "name": "hash",
          "type": "bytes32"
        },
        {
          "internalType": "bytes",
          "name": "sig",
          "type": "bytes"
        }
      ],
      "name": "getSigner",
      "outputs": [
        {
          "internalType": "address",
          "name": "",
          "type": "address"
        }
      ],
      "stateMutability": "pure",
      "type": "function",
      "constant": true
    },
    {
      "inputs": [
        {
          "internalType": "uint256",
          "name": "nftPublicKey",
          "type": "uint256"
        },
        {
          "internalType": "string",
          "name": "uri",
          "type": "string"
        },
        {
          "internalType": "bytes",
          "name": "signature",
          "type": "bytes"
        }
      ],
      "name": "bid",
      "outputs": [],
      "stateMutability": "payable",
      "type": "function",
      "payable": true
    },
    {
      "inputs": [
        {
          "internalType": "uint256",
          "name": "nftPublicKey",
          "type": "uint256"
        }
      ],
      "name": "getBid",
      "outputs": [
        {
          "internalType": "uint256",
          "name": "",
          "type": "uint256"
        }
      ],
      "stateMutability": "view",
      "type": "function",
      "constant": true
    },
    {
      "inputs": [
        {
          "internalType": "uint256",
          "name": "nftPublicKey",
          "type": "uint256"
        }
      ],
      "name": "getAuctionStart",
      "outputs": [
        {
          "internalType": "uint256",
          "name": "",
          "type": "uint256"
        }
      ],
      "stateMutability": "view",
      "type": "function",
      "constant": true
    },
    {
      "inputs": [
        {
          "internalType": "uint32",
          "name": "percentage",
          "type": "uint32"
        }
      ],
      "name": "setTransactionFeesPercentage",
      "outputs": [],
      "stateMutability": "nonpayable",
      "type": "function"
    },
    {
      "inputs": [],
      "name": "getTransactionFeesPercentage",
      "outputs": [
        {
          "internalType": "uint32",
          "name": "",
          "type": "uint32"
        }
      ],
      "stateMutability": "view",
      "type": "function",
      "constant": true
    },
    {
      "inputs": [
        {
          "internalType": "uint256",
          "name": "nftPublicKey",
          "type": "uint256"
        }
      ],
      "name": "withdraw",
      "outputs": [],
      "stateMutability": "payable",
      "type": "function",
      "payable": true
    },
    {
      "inputs": [
        {
          "internalType": "uint256",
          "name": "nftPublicKey",
          "type": "uint256"
        }
      ],
      "name": "getWinningBidAddress",
      "outputs": [
        {
          "internalType": "address payable",
          "name": "",
          "type": "address"
        }
      ],
      "stateMutability": "view",
      "type": "function",
      "constant": true
    },
    {
      "inputs": [
        {
          "internalType": "uint256",
          "name": "nftPublicKey",
          "type": "uint256"
        }
      ],
      "name": "getWinningBidAmount",
      "outputs": [
        {
          "internalType": "uint256",
          "name": "",
          "type": "uint256"
        }
      ],
      "stateMutability": "view",
      "type": "function",
      "constant": true
    },
    {
      "inputs": [
        {
          "internalType": "uint256",
          "name": "nftPublicKey",
          "type": "uint256"
        },
        {
          "internalType": "bytes",
          "name": "signature",
          "type": "bytes"
        }
      ],
      "name": "claim",
      "outputs": [],
      "stateMutability": "nonpayable",
      "type": "function"
    },
    {
      "inputs": [],
      "name": "getOwnerBalance",
      "outputs": [
        {
          "internalType": "uint256",
          "name": "",
          "type": "uint256"
        }
      ],
      "stateMutability": "view",
      "type": "function",
      "constant": true
    },
    {
      "inputs": [],
      "name": "withdrawOnwerBalance",
      "outputs": [],
      "stateMutability": "nonpayable",
      "type": "function"
    },
    {
      "inputs": [],
      "name": "getOwner",
      "outputs": [
        {
          "internalType": "address payable",
          "name": "",
          "type": "address"
        }
      ],
      "stateMutability": "view",
      "type": "function",
      "constant": true
    },
    {
      "inputs": [],
      "name": "getCurrentTimestamp",
      "outputs": [
        {
          "internalType": "uint256",
          "name": "",
          "type": "uint256"
        }
      ],
      "stateMutability": "view",
      "type": "function",
      "constant": true
    },
    {
      "inputs": [
        {
          "internalType": "uint256",
          "name": "nftPublicKey",
          "type": "uint256"
        }
      ],
      "name": "getAuctionEnd",
      "outputs": [
        {
          "internalType": "uint256",
          "name": "",
          "type": "uint256"
        }
      ],
      "stateMutability": "view",
      "type": "function",
      "constant": true
    }
  ],
  "bytecode": "0x60806040523480156200001157600080fd5b5060016000806301ffc9a760e01b7bffffffffffffffffffffffffffffffffffffffffffffffffffffffff1916815260200190815260200160002060006101000a81548160ff02191690831515021790555060016000806380ac58cd60e01b7bffffffffffffffffffffffffffffffffffffffffffffffffffffffff1916815260200190815260200160002060006101000a81548160ff0219169083151502179055506001600080635b5e139f60e01b7bffffffffffffffffffffffffffffffffffffffffffffffffffffffff1916815260200190815260200160002060006101000a81548160ff02191690831515021790555033600860006101000a81548173ffffffffffffffffffffffffffffffffffffffff021916908373ffffffffffffffffffffffffffffffffffffffff16021790555033600960006101000a81548173ffffffffffffffffffffffffffffffffffffffff021916908373ffffffffffffffffffffffffffffffffffffffff1602179055506000600860146101000a81548163ffffffff021916908363ffffffff1602179055506000600a819055506040518060400160405280601881526020017f546f7020436f6d6d697473206279205175657374626f6f6b000000000000000081525060059080519060200190620001fe92919062000253565b506040518060400160405280600381526020017f5443510000000000000000000000000000000000000000000000000000000000815250600690805190602001906200024c92919062000253565b5062000368565b828054620002619062000303565b90600052602060002090601f016020900481019282620002855760008555620002d1565b82601f10620002a057805160ff1916838001178555620002d1565b82800160010185558215620002d1579182015b82811115620002d0578251825591602001919060010190620002b3565b5b509050620002e09190620002e4565b5090565b5b80821115620002ff576000816000905550600101620002e5565b5090565b600060028204905060018216806200031c57607f821691505b6020821081141562000333576200033262000339565b5b50919050565b7f4e487b7100000000000000000000000000000000000000000000000000000000600052602260045260246000fd5b6148e980620003786000396000f3fe6080604052600436106101e35760003560e01c80636d117c3911610102578063a3c8fdd811610095578063eda8927911610064578063eda8927914610710578063f2fde38b1461074d578063f3fe3bc314610776578063f7b2ec0d146107a1576101e3565b8063a3c8fdd814610630578063b88d4fde1461066d578063c87b56dd14610696578063e985e9c5146106d3576101e3565b80638da5cb5b116100d15780638da5cb5b14610586578063900b1d9a146105b157806395d89b41146105dc578063a22cb46514610607576101e3565b80636d117c39146104b657806370a08231146104f3578063860d248a14610530578063893d20e81461055b576101e3565b80633c889e6f1161017a57806362b504bf1161014957806362b504bf146104095780636352211e1461043257806365156d311461046f5780636c9230db1461048b576101e3565b80633c889e6f1461036157806342842e0e1461039e578063470db0d1146103c7578063590791f2146103de576101e3565b80631503e4d8116101b65780631503e4d8146102b657806323b872dd146102f35780632e1a7d4d1461031c57806338926b6d14610338576101e3565b806301ffc9a7146101e857806306fdde0314610225578063081812fc14610250578063095ea7b31461028d575b600080fd5b3480156101f457600080fd5b5061020f600480360381019061020a91906138df565b6107de565b60405161021c91906140c2565b60405180910390f35b34801561023157600080fd5b5061023a610845565b6040516102479190614122565b60405180910390f35b34801561025c57600080fd5b5061027760048036038101906102729190613931565b6108d7565b6040516102849190614040565b60405180910390f35b34801561029957600080fd5b506102b460048036038101906102af919061384f565b6109f2565b005b3480156102c257600080fd5b506102dd60048036038101906102d89190613931565b610dd5565b6040516102ea919061405b565b60405180910390f35b3480156102ff57600080fd5b5061031a60048036038101906103159190613744565b610e15565b005b61033660048036038101906103319190613931565b611267565b005b34801561034457600080fd5b5061035f600480360381019061035a919061395a565b6114e8565b005b34801561036d57600080fd5b5061038860048036038101906103839190613931565b611722565b60405161039591906142a4565b60405180910390f35b3480156103aa57600080fd5b506103c560048036038101906103c09190613744565b611742565b005b3480156103d357600080fd5b506103dc611762565b005b3480156103ea57600080fd5b506103f36117d7565b60405161040091906142a4565b60405180910390f35b34801561041557600080fd5b50610430600480360381019061042b9190613a2d565b6117e1565b005b34801561043e57600080fd5b5061045960048036038101906104549190613931565b6118df565b6040516104669190614040565b60405180910390f35b610489600480360381019061048491906139ae565b6119c5565b005b34801561049757600080fd5b506104a0611e46565b6040516104ad91906142a4565b60405180910390f35b3480156104c257600080fd5b506104dd60048036038101906104d89190613931565b611e4e565b6040516104ea91906142a4565b60405180910390f35b3480156104ff57600080fd5b5061051a600480360381019061051591906136df565b611e6e565b60405161052791906142a4565b60405180910390f35b34801561053c57600080fd5b50610545611f28565b6040516105529190614122565b60405180910390f35b34801561056757600080fd5b50610570611f61565b60405161057d919061405b565b60405180910390f35b34801561059257600080fd5b5061059b611f8b565b6040516105a89190614040565b60405180910390f35b3480156105bd57600080fd5b506105c6611fb1565b6040516105d39190614356565b60405180910390f35b3480156105e857600080fd5b506105f1611fcb565b6040516105fe9190614122565b60405180910390f35b34801561061357600080fd5b5061062e60048036038101906106299190613813565b61205d565b005b34801561063c57600080fd5b5061065760048036038101906106529190613931565b61215a565b60405161066491906142a4565b60405180910390f35b34801561067957600080fd5b50610694600480360381019061068f9190613793565b61217a565b005b3480156106a257600080fd5b506106bd60048036038101906106b89190613931565b6121d1565b6040516106ca9190614122565b60405180910390f35b3480156106df57600080fd5b506106fa60048036038101906106f59190613708565b612354565b60405161070791906140c2565b60405180910390f35b34801561071c57600080fd5b5061073760048036038101906107329190613931565b6123e8565b60405161074491906142a4565b60405180910390f35b34801561075957600080fd5b50610774600480360381019061076f91906136df565b612416565b005b34801561078257600080fd5b5061078b612648565b6040516107989190614122565b60405180910390f35b3480156107ad57600080fd5b506107c860048036038101906107c3919061388b565b612681565b6040516107d59190614040565b60405180910390f35b6000806000837bffffffffffffffffffffffffffffffffffffffffffffffffffffffff19167bffffffffffffffffffffffffffffffffffffffffffffffffffffffff1916815260200190815260200160002060009054906101000a900460ff169050919050565b606060058054610854906146e5565b80601f0160208091040260200160405190810160405280929190818152602001828054610880906146e5565b80156108cd5780601f106108a2576101008083540402835291602001916108cd565b820191906000526020600020905b8154815290600101906020018083116108b057829003601f168201915b5050505050905090565b600081600073ffffffffffffffffffffffffffffffffffffffff166001600083815260200190815260200160002060009054906101000a900473ffffffffffffffffffffffffffffffffffffffff1673ffffffffffffffffffffffffffffffffffffffff1614156040518060400160405280600681526020017f3030333030320000000000000000000000000000000000000000000000000000815250906109b5576040517f08c379a00000000000000000000000000000000000000000000000000000000081526004016109ac9190614122565b60405180910390fd5b506002600084815260200190815260200160002060009054906101000a900473ffffffffffffffffffffffffffffffffffffffff16915050919050565b8060006001600083815260200190815260200160002060009054906101000a900473ffffffffffffffffffffffffffffffffffffffff1690503373ffffffffffffffffffffffffffffffffffffffff168173ffffffffffffffffffffffffffffffffffffffff161480610aeb5750600460008273ffffffffffffffffffffffffffffffffffffffff1673ffffffffffffffffffffffffffffffffffffffff16815260200190815260200160002060003373ffffffffffffffffffffffffffffffffffffffff1673ffffffffffffffffffffffffffffffffffffffff16815260200190815260200160002060009054906101000a900460ff165b6040518060400160405280600681526020017f303033303033000000000000000000000000000000000000000000000000000081525090610b62576040517f08c379a0000000000000000000000000000000000000000000000000000000008152600401610b599190614122565b60405180910390fd5b5082600073ffffffffffffffffffffffffffffffffffffffff166001600083815260200190815260200160002060009054906101000a900473ffffffffffffffffffffffffffffffffffffffff1673ffffffffffffffffffffffffffffffffffffffff1614156040518060400160405280600681526020017f303033303032000000000000000000000000000000000000000000000000000081525090610c3f576040517f08c379a0000000000000000000000000000000000000000000000000000000008152600401610c369190614122565b60405180910390fd5b5060006001600086815260200190815260200160002060009054906101000a900473ffffffffffffffffffffffffffffffffffffffff1690508073ffffffffffffffffffffffffffffffffffffffff168673ffffffffffffffffffffffffffffffffffffffff1614156040518060400160405280600681526020017f303033303038000000000000000000000000000000000000000000000000000081525090610d1f576040517f08c379a0000000000000000000000000000000000000000000000000000000008152600401610d169190614122565b60405180910390fd5b50856002600087815260200190815260200160002060006101000a81548173ffffffffffffffffffffffffffffffffffffffff021916908373ffffffffffffffffffffffffffffffffffffffff160217905550848673ffffffffffffffffffffffffffffffffffffffff168273ffffffffffffffffffffffffffffffffffffffff167f8c5be1e5ebec7d5bd14f71427d1e84f3dd0314c0f7b2291e5b200ac8c7c3b92560405160405180910390a4505050505050565b6000600b600083815260200190815260200160002060000160009054906101000a900473ffffffffffffffffffffffffffffffffffffffff169050919050565b8060006001600083815260200190815260200160002060009054906101000a900473ffffffffffffffffffffffffffffffffffffffff1690503373ffffffffffffffffffffffffffffffffffffffff168173ffffffffffffffffffffffffffffffffffffffff161480610ee657503373ffffffffffffffffffffffffffffffffffffffff166002600084815260200190815260200160002060009054906101000a900473ffffffffffffffffffffffffffffffffffffffff1673ffffffffffffffffffffffffffffffffffffffff16145b80610f775750600460008273ffffffffffffffffffffffffffffffffffffffff1673ffffffffffffffffffffffffffffffffffffffff16815260200190815260200160002060003373ffffffffffffffffffffffffffffffffffffffff1673ffffffffffffffffffffffffffffffffffffffff16815260200190815260200160002060009054906101000a900460ff165b6040518060400160405280600681526020017f303033303034000000000000000000000000000000000000000000000000000081525090610fee576040517f08c379a0000000000000000000000000000000000000000000000000000000008152600401610fe59190614122565b60405180910390fd5b5082600073ffffffffffffffffffffffffffffffffffffffff166001600083815260200190815260200160002060009054906101000a900473ffffffffffffffffffffffffffffffffffffffff1673ffffffffffffffffffffffffffffffffffffffff1614156040518060400160405280600681526020017f3030333030320000000000000000000000000000000000000000000000000000815250906110cb576040517f08c379a00000000000000000000000000000000000000000000000000000000081526004016110c29190614122565b60405180910390fd5b5060006001600086815260200190815260200160002060009054906101000a900473ffffffffffffffffffffffffffffffffffffffff1690508673ffffffffffffffffffffffffffffffffffffffff168173ffffffffffffffffffffffffffffffffffffffff16146040518060400160405280600681526020017f3030333030370000000000000000000000000000000000000000000000000000815250906111aa576040517f08c379a00000000000000000000000000000000000000000000000000000000081526004016111a19190614122565b60405180910390fd5b50600073ffffffffffffffffffffffffffffffffffffffff168673ffffffffffffffffffffffffffffffffffffffff1614156040518060400160405280600681526020017f303033303031000000000000000000000000000000000000000000000000000081525090611253576040517f08c379a000000000000000000000000000000000000000000000000000000000815260040161124a9190614122565b60405180910390fd5b5061125e8686612754565b50505050505050565b34600a60008282546112799190614445565b92505081905550600073ffffffffffffffffffffffffffffffffffffffff163373ffffffffffffffffffffffffffffffffffffffff1614156112f0576040517f08c379a00000000000000000000000000000000000000000000000000000000081526004016112e790614264565b60405180910390fd5b4262015180600b6000848152602001908152602001600020600401546113169190614445565b10611356576040517f08c379a000000000000000000000000000000000000000000000000000000000815260040161134d90614284565b60405180910390fd5b3373ffffffffffffffffffffffffffffffffffffffff16600b600083815260200190815260200160002060000160009054906101000a900473ffffffffffffffffffffffffffffffffffffffff1673ffffffffffffffffffffffffffffffffffffffff16146113fa576040517f08c379a00000000000000000000000000000000000000000000000000000000081526004016113f190614144565b60405180910390fd5b6114043382612809565b6114ac81600b60008481526020019081526020016000206002018054611429906146e5565b80601f0160208091040260200160405190810160405280929190818152602001828054611455906146e5565b80156114a25780601f10611477576101008083540402835291602001916114a2565b820191906000526020600020905b81548152906001019060200180831161148557829003601f168201915b50505050506129f7565b7f8c7cdad0d12a8db3e23561b42da6f10c8137914c97beff202213a410e1f520a381336040516114dd9291906142bf565b60405180910390a150565b600082336040516020016114fd929190614014565b6040516020818303038152906040528051906020012090506000816040516020016115289190613fee565b6040516020818303038152906040528051906020012090504262015180600b6000878152602001908152602001600020600401546115669190614445565b106115a6576040517f08c379a000000000000000000000000000000000000000000000000000000000815260040161159d90614244565b60405180910390fd5b600860009054906101000a900473ffffffffffffffffffffffffffffffffffffffff1673ffffffffffffffffffffffffffffffffffffffff166115e98285612681565b73ffffffffffffffffffffffffffffffffffffffff161461163f576040517f08c379a000000000000000000000000000000000000000000000000000000000815260040161163690614184565b60405180910390fd5b6001600b600086815260200190815260200160002060030160006101000a81548160ff0219169083151502179055503373ffffffffffffffffffffffffffffffffffffffff166108fc600b6000878152602001908152602001600020600101549081150290604051600060405180830381858888f193505050501580156116ca573d6000803e3d6000fd5b507f4ec90e965519d92681267467f775ada5bd214aa92c0dc93d90a5e880ce9ed0268433600b600088815260200190815260200160002060010154604051611714939291906142e8565b60405180910390a150505050565b6000600b6000838152602001908152602001600020600101549050919050565b61175d83838360405180602001604052806000815250612b01565b505050565b600860009054906101000a900473ffffffffffffffffffffffffffffffffffffffff1673ffffffffffffffffffffffffffffffffffffffff166108fc600a549081150290604051600060405180830381858888f193505050501580156117cc573d6000803e3d6000fd5b506000600a81905550565b6000600a54905090565b600960009054906101000a900473ffffffffffffffffffffffffffffffffffffffff1673ffffffffffffffffffffffffffffffffffffffff163373ffffffffffffffffffffffffffffffffffffffff1614611871576040517f08c379a000000000000000000000000000000000000000000000000000000000815260040161186890614164565b60405180910390fd5b60018163ffffffff1611156118bb576040517f08c379a00000000000000000000000000000000000000000000000000000000081526004016118b2906141c4565b60405180910390fd5b80600860146101000a81548163ffffffff021916908363ffffffff16021790555050565b60006001600083815260200190815260200160002060009054906101000a900473ffffffffffffffffffffffffffffffffffffffff169050600073ffffffffffffffffffffffffffffffffffffffff168173ffffffffffffffffffffffffffffffffffffffff1614156040518060400160405280600681526020017f3030333030320000000000000000000000000000000000000000000000000000815250906119bf576040517f08c379a00000000000000000000000000000000000000000000000000000000081526004016119b69190614122565b60405180910390fd5b50919050565b6000826040516020016119d89190613fd7565b604051602081830303815290604052805190602001209050600081604051602001611a039190613fee565b6040516020818303038152906040528051906020012090506000611a278285612681565b9050600960009054906101000a900473ffffffffffffffffffffffffffffffffffffffff1673ffffffffffffffffffffffffffffffffffffffff168173ffffffffffffffffffffffffffffffffffffffff1614611ab9576040517f08c379a0000000000000000000000000000000000000000000000000000000008152600401611ab0906141a4565b60405180910390fd5b600b600087815260200190815260200160002060050160009054906101000a900460ff1615611cb3574262015180600b600089815260200190815260200160002060040154611b089190614445565b11611b48576040517f08c379a0000000000000000000000000000000000000000000000000000000008152600401611b3f906141e4565b60405180910390fd5b600b600087815260200190815260200160002060030160009054906101000a900460ff1615611bac576040517f08c379a0000000000000000000000000000000000000000000000000000000008152600401611ba390614204565b60405180910390fd5b600a600b80600089815260200190815260200160002060010154611bd09190614534565b611bda91906144d2565b3411611c1b576040517f08c379a0000000000000000000000000000000000000000000000000000000008152600401611c1290614224565b60405180910390fd5b600b600087815260200190815260200160002060000160009054906101000a900473ffffffffffffffffffffffffffffffffffffffff1673ffffffffffffffffffffffffffffffffffffffff166108fc600b6000898152602001908152602001600020600101549081150290604051600060405180830381858888f19350505050158015611cad573d6000803e3d6000fd5b50611d58565b42600b60008881526020019081526020016000206004018190555084600b60008881526020019081526020016000206002019080519060200190611cf892919061348f565b506000600b600088815260200190815260200160002060030160006101000a81548160ff0219169083151502179055506001600b600088815260200190815260200160002060050160006101000a81548160ff0219169083151502179055505b33600b600088815260200190815260200160002060000160006101000a81548173ffffffffffffffffffffffffffffffffffffffff021916908373ffffffffffffffffffffffffffffffffffffffff1602179055506064600860149054906101000a900463ffffffff16611dcc9190614503565b6001611dd891906145c2565b63ffffffff1634611de99190614534565b600b6000888152602001908152602001600020600101819055507f2db9bd3d5e680e2159753ffc16e1709fb0e786ca24553a511f64e3c6a7d4b70a863433604051611e369392919061431f565b60405180910390a1505050505050565b600042905090565b6000600b6000838152602001908152602001600020600401549050919050565b60008073ffffffffffffffffffffffffffffffffffffffff168273ffffffffffffffffffffffffffffffffffffffff1614156040518060400160405280600681526020017f303033303031000000000000000000000000000000000000000000000000000081525090611f17576040517f08c379a0000000000000000000000000000000000000000000000000000000008152600401611f0e9190614122565b60405180910390fd5b50611f21826130cf565b9050919050565b6040518060400160405280600681526020017f303138303032000000000000000000000000000000000000000000000000000081525081565b6000600960009054906101000a900473ffffffffffffffffffffffffffffffffffffffff16905090565b600860009054906101000a900473ffffffffffffffffffffffffffffffffffffffff1681565b6000600860149054906101000a900463ffffffff16905090565b606060068054611fda906146e5565b80601f0160208091040260200160405190810160405280929190818152602001828054612006906146e5565b80156120535780601f1061202857610100808354040283529160200191612053565b820191906000526020600020905b81548152906001019060200180831161203657829003601f168201915b5050505050905090565b80600460003373ffffffffffffffffffffffffffffffffffffffff1673ffffffffffffffffffffffffffffffffffffffff16815260200190815260200160002060008473ffffffffffffffffffffffffffffffffffffffff1673ffffffffffffffffffffffffffffffffffffffff16815260200190815260200160002060006101000a81548160ff0219169083151502179055508173ffffffffffffffffffffffffffffffffffffffff163373ffffffffffffffffffffffffffffffffffffffff167f17307eab39ab6107e8899845ad3d59bd9653f200f220920489ca2b5937696c318360405161214e91906140c2565b60405180910390a35050565b6000600b6000838152602001908152602001600020600101549050919050565b6121ca85858585858080601f016020809104026020016040519081016040528093929190818152602001838380828437600081840152601f19601f82011690508083019250505050505050612b01565b5050505050565b606081600073ffffffffffffffffffffffffffffffffffffffff166001600083815260200190815260200160002060009054906101000a900473ffffffffffffffffffffffffffffffffffffffff1673ffffffffffffffffffffffffffffffffffffffff1614156040518060400160405280600681526020017f3030333030320000000000000000000000000000000000000000000000000000815250906122af576040517f08c379a00000000000000000000000000000000000000000000000000000000081526004016122a69190614122565b60405180910390fd5b506007600084815260200190815260200160002080546122ce906146e5565b80601f01602080910402602001604051908101604052809291908181526020018280546122fa906146e5565b80156123475780601f1061231c57610100808354040283529160200191612347565b820191906000526020600020905b81548152906001019060200180831161232a57829003601f168201915b5050505050915050919050565b6000600460008473ffffffffffffffffffffffffffffffffffffffff1673ffffffffffffffffffffffffffffffffffffffff16815260200190815260200160002060008373ffffffffffffffffffffffffffffffffffffffff1673ffffffffffffffffffffffffffffffffffffffff16815260200190815260200160002060009054906101000a900460ff16905092915050565b600062015180600b60008481526020019081526020016000206004015461240f9190614445565b9050919050565b600860009054906101000a900473ffffffffffffffffffffffffffffffffffffffff1673ffffffffffffffffffffffffffffffffffffffff163373ffffffffffffffffffffffffffffffffffffffff16146040518060400160405280600681526020017f3031383030310000000000000000000000000000000000000000000000000000815250906124de576040517f08c379a00000000000000000000000000000000000000000000000000000000081526004016124d59190614122565b60405180910390fd5b50600073ffffffffffffffffffffffffffffffffffffffff168173ffffffffffffffffffffffffffffffffffffffff1614156040518060400160405280600681526020017f303138303032000000000000000000000000000000000000000000000000000081525090612587576040517f08c379a000000000000000000000000000000000000000000000000000000000815260040161257e9190614122565b60405180910390fd5b508073ffffffffffffffffffffffffffffffffffffffff16600860009054906101000a900473ffffffffffffffffffffffffffffffffffffffff1673ffffffffffffffffffffffffffffffffffffffff167f8be0079c531659141344cd1fd0a4f28419497f9722a3daafe3b4186f6b6457e060405160405180910390a380600860006101000a81548173ffffffffffffffffffffffffffffffffffffffff021916908373ffffffffffffffffffffffffffffffffffffffff16021790555050565b6040518060400160405280600681526020017f303138303031000000000000000000000000000000000000000000000000000081525081565b600080600080604185511461269c576000935050505061274e565b602085015192506040850151915060ff6041860151169050601b8160ff1610156126d057601b816126cd919061449b565b90505b601b8160ff16141580156126e85750601c8160ff1614155b156126f9576000935050505061274e565b6001868285856040516000815260200160405260405161271c94939291906140dd565b6020604051602081039080840390855afa15801561273e573d6000803e3d6000fd5b5050506020604051035193505050505b92915050565b60006001600083815260200190815260200160002060009054906101000a900473ffffffffffffffffffffffffffffffffffffffff16905061279582613118565b61279f8183613151565b6127a983836132bc565b818373ffffffffffffffffffffffffffffffffffffffff168273ffffffffffffffffffffffffffffffffffffffff167fddf252ad1be2c89b69c2b068fc378daa952ba7f163c4a11628f55a4df523b3ef60405160405180910390a4505050565b600073ffffffffffffffffffffffffffffffffffffffff168273ffffffffffffffffffffffffffffffffffffffff1614156040518060400160405280600681526020017f3030333030310000000000000000000000000000000000000000000000000000815250906128b1576040517f08c379a00000000000000000000000000000000000000000000000000000000081526004016128a89190614122565b60405180910390fd5b50600073ffffffffffffffffffffffffffffffffffffffff166001600083815260200190815260200160002060009054906101000a900473ffffffffffffffffffffffffffffffffffffffff1673ffffffffffffffffffffffffffffffffffffffff16146040518060400160405280600681526020017f30303330303600000000000000000000000000000000000000000000000000008152509061298c576040517f08c379a00000000000000000000000000000000000000000000000000000000081526004016129839190614122565b60405180910390fd5b5061299782826132bc565b808273ffffffffffffffffffffffffffffffffffffffff16600073ffffffffffffffffffffffffffffffffffffffff167fddf252ad1be2c89b69c2b068fc378daa952ba7f163c4a11628f55a4df523b3ef60405160405180910390a45050565b81600073ffffffffffffffffffffffffffffffffffffffff166001600083815260200190815260200160002060009054906101000a900473ffffffffffffffffffffffffffffffffffffffff1673ffffffffffffffffffffffffffffffffffffffff1614156040518060400160405280600681526020017f303033303032000000000000000000000000000000000000000000000000000081525090612ad3576040517f08c379a0000000000000000000000000000000000000000000000000000000008152600401612aca9190614122565b60405180910390fd5b5081600760008581526020019081526020016000209080519060200190612afb92919061348f565b50505050565b8160006001600083815260200190815260200160002060009054906101000a900473ffffffffffffffffffffffffffffffffffffffff1690503373ffffffffffffffffffffffffffffffffffffffff168173ffffffffffffffffffffffffffffffffffffffff161480612bd257503373ffffffffffffffffffffffffffffffffffffffff166002600084815260200190815260200160002060009054906101000a900473ffffffffffffffffffffffffffffffffffffffff1673ffffffffffffffffffffffffffffffffffffffff16145b80612c635750600460008273ffffffffffffffffffffffffffffffffffffffff1673ffffffffffffffffffffffffffffffffffffffff16815260200190815260200160002060003373ffffffffffffffffffffffffffffffffffffffff1673ffffffffffffffffffffffffffffffffffffffff16815260200190815260200160002060009054906101000a900460ff165b6040518060400160405280600681526020017f303033303034000000000000000000000000000000000000000000000000000081525090612cda576040517f08c379a0000000000000000000000000000000000000000000000000000000008152600401612cd19190614122565b60405180910390fd5b5083600073ffffffffffffffffffffffffffffffffffffffff166001600083815260200190815260200160002060009054906101000a900473ffffffffffffffffffffffffffffffffffffffff1673ffffffffffffffffffffffffffffffffffffffff1614156040518060400160405280600681526020017f303033303032000000000000000000000000000000000000000000000000000081525090612db7576040517f08c379a0000000000000000000000000000000000000000000000000000000008152600401612dae9190614122565b60405180910390fd5b5060006001600087815260200190815260200160002060009054906101000a900473ffffffffffffffffffffffffffffffffffffffff1690508773ffffffffffffffffffffffffffffffffffffffff168173ffffffffffffffffffffffffffffffffffffffff16146040518060400160405280600681526020017f303033303037000000000000000000000000000000000000000000000000000081525090612e96576040517f08c379a0000000000000000000000000000000000000000000000000000000008152600401612e8d9190614122565b60405180910390fd5b50600073ffffffffffffffffffffffffffffffffffffffff168773ffffffffffffffffffffffffffffffffffffffff1614156040518060400160405280600681526020017f303033303031000000000000000000000000000000000000000000000000000081525090612f3f576040517f08c379a0000000000000000000000000000000000000000000000000000000008152600401612f369190614122565b60405180910390fd5b50612f4a8787612754565b612f698773ffffffffffffffffffffffffffffffffffffffff16613444565b156130c55760008773ffffffffffffffffffffffffffffffffffffffff1663150b7a02338b8a8a6040518563ffffffff1660e01b8152600401612faf9493929190614076565b602060405180830381600087803b158015612fc957600080fd5b505af1158015612fdd573d6000803e3d6000fd5b505050506040513d601f19601f820116820180604052508101906130019190613908565b905063150b7a0260e01b7bffffffffffffffffffffffffffffffffffffffffffffffffffffffff1916817bffffffffffffffffffffffffffffffffffffffffffffffffffffffff1916146040518060400160405280600681526020017f3030333030350000000000000000000000000000000000000000000000000000815250906130c2576040517f08c379a00000000000000000000000000000000000000000000000000000000081526004016130b99190614122565b60405180910390fd5b50505b5050505050505050565b6000600360008373ffffffffffffffffffffffffffffffffffffffff1673ffffffffffffffffffffffffffffffffffffffff168152602001908152602001600020549050919050565b6002600082815260200190815260200160002060006101000a81549073ffffffffffffffffffffffffffffffffffffffff021916905550565b8173ffffffffffffffffffffffffffffffffffffffff166001600083815260200190815260200160002060009054906101000a900473ffffffffffffffffffffffffffffffffffffffff1673ffffffffffffffffffffffffffffffffffffffff16146040518060400160405280600681526020017f30303330303700000000000000000000000000000000000000000000000000008152509061322a576040517f08c379a00000000000000000000000000000000000000000000000000000000081526004016132219190614122565b60405180910390fd5b506001600360008473ffffffffffffffffffffffffffffffffffffffff1673ffffffffffffffffffffffffffffffffffffffff168152602001908152602001600020600082825461327b919061458e565b925050819055506001600082815260200190815260200160002060006101000a81549073ffffffffffffffffffffffffffffffffffffffff02191690555050565b600073ffffffffffffffffffffffffffffffffffffffff166001600083815260200190815260200160002060009054906101000a900473ffffffffffffffffffffffffffffffffffffffff1673ffffffffffffffffffffffffffffffffffffffff16146040518060400160405280600681526020017f303033303036000000000000000000000000000000000000000000000000000081525090613396576040517f08c379a000000000000000000000000000000000000000000000000000000000815260040161338d9190614122565b60405180910390fd5b50816001600083815260200190815260200160002060006101000a81548173ffffffffffffffffffffffffffffffffffffffff021916908373ffffffffffffffffffffffffffffffffffffffff1602179055506001600360008473ffffffffffffffffffffffffffffffffffffffff1673ffffffffffffffffffffffffffffffffffffffff16815260200190815260200160002060008282546134399190614445565b925050819055505050565b60008060007fc5d2460186f7233c927e7db2dcc703c0e500b653ca82273b7bfad8045d85a47060001b9050833f91506000801b82141580156134865750808214155b92505050919050565b82805461349b906146e5565b90600052602060002090601f0160209004810192826134bd5760008555613504565b82601f106134d657805160ff1916838001178555613504565b82800160010185558215613504579182015b828111156135035782518255916020019190600101906134e8565b5b5090506135119190613515565b5090565b5b8082111561352e576000816000905550600101613516565b5090565b6000613545613540846143a2565b614371565b90508281526020810184848401111561355d57600080fd5b6135688482856146a3565b509392505050565b600061358361357e846143d2565b614371565b90508281526020810184848401111561359b57600080fd5b6135a68482856146a3565b509392505050565b6000813590506135bd81614829565b92915050565b6000813590506135d281614840565b92915050565b6000813590506135e781614857565b92915050565b6000813590506135fc8161486e565b92915050565b6000815190506136118161486e565b92915050565b60008083601f84011261362957600080fd5b8235905067ffffffffffffffff81111561364257600080fd5b60208301915083600182028301111561365a57600080fd5b9250929050565b600082601f83011261367257600080fd5b8135613682848260208601613532565b91505092915050565b600082601f83011261369c57600080fd5b81356136ac848260208601613570565b91505092915050565b6000813590506136c481614885565b92915050565b6000813590506136d98161489c565b92915050565b6000602082840312156136f157600080fd5b60006136ff848285016135ae565b91505092915050565b6000806040838503121561371b57600080fd5b6000613729858286016135ae565b925050602061373a858286016135ae565b9150509250929050565b60008060006060848603121561375957600080fd5b6000613767868287016135ae565b9350506020613778868287016135ae565b9250506040613789868287016136b5565b9150509250925092565b6000806000806000608086880312156137ab57600080fd5b60006137b9888289016135ae565b95505060206137ca888289016135ae565b94505060406137db888289016136b5565b935050606086013567ffffffffffffffff8111156137f857600080fd5b61380488828901613617565b92509250509295509295909350565b6000806040838503121561382657600080fd5b6000613834858286016135ae565b9250506020613845858286016135c3565b9150509250929050565b6000806040838503121561386257600080fd5b6000613870858286016135ae565b9250506020613881858286016136b5565b9150509250929050565b6000806040838503121561389e57600080fd5b60006138ac858286016135d8565b925050602083013567ffffffffffffffff8111156138c957600080fd5b6138d585828601613661565b9150509250929050565b6000602082840312156138f157600080fd5b60006138ff848285016135ed565b91505092915050565b60006020828403121561391a57600080fd5b600061392884828501613602565b91505092915050565b60006020828403121561394357600080fd5b6000613951848285016136b5565b91505092915050565b6000806040838503121561396d57600080fd5b600061397b858286016136b5565b925050602083013567ffffffffffffffff81111561399857600080fd5b6139a485828601613661565b9150509250929050565b6000806000606084860312156139c357600080fd5b60006139d1868287016136b5565b935050602084013567ffffffffffffffff8111156139ee57600080fd5b6139fa8682870161368b565b925050604084013567ffffffffffffffff811115613a1757600080fd5b613a2386828701613661565b9150509250925092565b600060208284031215613a3f57600080fd5b6000613a4d848285016136ca565b91505092915050565b613a5f81614608565b82525050565b613a6e816145f6565b82525050565b613a85613a80826145f6565b614717565b82525050565b613a948161461a565b82525050565b613aa381614626565b82525050565b613aba613ab582614626565b614729565b82525050565b6000613acb82614402565b613ad58185614418565b9350613ae58185602086016146b2565b613aee8161480b565b840191505092915050565b6000613b048261440d565b613b0e8185614429565b9350613b1e8185602086016146b2565b613b278161480b565b840191505092915050565b6000613b3d8261440d565b613b47818561443a565b9350613b578185602086016146b2565b80840191505092915050565b6000613b70602b83614429565b91507f43616e2062652077697468647261776e206f6e6c79206279207468652077696e60008301527f6e696e67206269646465720000000000000000000000000000000000000000006020830152604082019050919050565b6000613bd6602783614429565b91507f4f6e6c79206f776e657220616c6c6f77656420746f206368616e67652070657260008301527f63656e74616765000000000000000000000000000000000000000000000000006020830152604082019050919050565b6000613c3c601c8361443a565b91507f19457468657265756d205369676e6564204d6573736167653a0a3332000000006000830152601c82019050919050565b6000613c7c603083614429565b91507f4e65656473207369676e61747572652066726f6d206f776e657220746f20636c60008301527f61696d2061756374696f6e2062696473000000000000000000000000000000006020830152604082019050919050565b6000613ce2602c83614429565b91507f4e46542042696473206e65656420746f206265207369676e656420627920636f60008301527f6e7472616374206f776e657200000000000000000000000000000000000000006020830152604082019050919050565b6000613d48603283614429565b91507f5472616e73616374696f6e20666565732070657263656e746167652063616e6e60008301527f6f74206265206d6f7265207468616e20312500000000000000000000000000006020830152604082019050919050565b6000613dae601183614429565b91507f41756374696f6e2068617320656e6465640000000000000000000000000000006000830152602082019050919050565b6000613dee601683614429565b91507f546869732061756374696f6e2068617320656e646564000000000000000000006000830152602082019050919050565b6000613e2e602883614429565b91507f4269642073686f756c64206265206d6f7265207468616e2031313025206f662060008301527f70726576206269640000000000000000000000000000000000000000000000006020830152604082019050919050565b6000613e94602f83614429565b91507f43616e20626520636c61696d6564206f6e6c792061667465722074686520617560008301527f6374696f6e2068617320656e64656400000000000000000000000000000000006020830152604082019050919050565b6000613efa600c83614429565b91507f556e6b6e6f776e207573657200000000000000000000000000000000000000006000830152602082019050919050565b6000613f3a603183614429565b91507f43616e2062652077697468647261776e206f6e6c79206166746572207468652060008301527f61756374696f6e2068617320656e6465640000000000000000000000000000006020830152604082019050919050565b613f9c8161467c565b82525050565b613fb3613fae8261467c565b614745565b82525050565b613fc281614686565b82525050565b613fd181614696565b82525050565b6000613fe38284613b32565b915081905092915050565b6000613ff982613c2f565b91506140058284613aa9565b60208201915081905092915050565b60006140208285613fa2565b6020820191506140308284613a74565b6014820191508190509392505050565b60006020820190506140556000830184613a65565b92915050565b60006020820190506140706000830184613a56565b92915050565b600060808201905061408b6000830187613a65565b6140986020830186613a65565b6140a56040830185613f93565b81810360608301526140b78184613ac0565b905095945050505050565b60006020820190506140d76000830184613a8b565b92915050565b60006080820190506140f26000830187613a9a565b6140ff6020830186613fc8565b61410c6040830185613a9a565b6141196060830184613a9a565b95945050505050565b6000602082019050818103600083015261413c8184613af9565b905092915050565b6000602082019050818103600083015261415d81613b63565b9050919050565b6000602082019050818103600083015261417d81613bc9565b9050919050565b6000602082019050818103600083015261419d81613c6f565b9050919050565b600060208201905081810360008301526141bd81613cd5565b9050919050565b600060208201905081810360008301526141dd81613d3b565b9050919050565b600060208201905081810360008301526141fd81613da1565b9050919050565b6000602082019050818103600083015261421d81613de1565b9050919050565b6000602082019050818103600083015261423d81613e21565b9050919050565b6000602082019050818103600083015261425d81613e87565b9050919050565b6000602082019050818103600083015261427d81613eed565b9050919050565b6000602082019050818103600083015261429d81613f2d565b9050919050565b60006020820190506142b96000830184613f93565b92915050565b60006040820190506142d46000830185613f93565b6142e16020830184613a65565b9392505050565b60006060820190506142fd6000830186613f93565b61430a6020830185613a65565b6143176040830184613f93565b949350505050565b60006060820190506143346000830186613f93565b6143416020830185613f93565b61434e6040830184613a65565b949350505050565b600060208201905061436b6000830184613fb9565b92915050565b6000604051905081810181811067ffffffffffffffff82111715614398576143976147dc565b5b8060405250919050565b600067ffffffffffffffff8211156143bd576143bc6147dc565b5b601f19601f8301169050602081019050919050565b600067ffffffffffffffff8211156143ed576143ec6147dc565b5b601f19601f8301169050602081019050919050565b600081519050919050565b600081519050919050565b600082825260208201905092915050565b600082825260208201905092915050565b600081905092915050565b60006144508261467c565b915061445b8361467c565b9250827fffffffffffffffffffffffffffffffffffffffffffffffffffffffffffffffff038211156144905761448f61474f565b5b828201905092915050565b60006144a682614696565b91506144b183614696565b92508260ff038211156144c7576144c661474f565b5b828201905092915050565b60006144dd8261467c565b91506144e88361467c565b9250826144f8576144f761477e565b5b828204905092915050565b600061450e82614686565b915061451983614686565b9250826145295761452861477e565b5b828204905092915050565b600061453f8261467c565b915061454a8361467c565b9250817fffffffffffffffffffffffffffffffffffffffffffffffffffffffffffffffff04831182151516156145835761458261474f565b5b828202905092915050565b60006145998261467c565b91506145a48361467c565b9250828210156145b7576145b661474f565b5b828203905092915050565b60006145cd82614686565b91506145d883614686565b9250828210156145eb576145ea61474f565b5b828203905092915050565b60006146018261465c565b9050919050565b60006146138261465c565b9050919050565b60008115159050919050565b6000819050919050565b60007fffffffff0000000000000000000000000000000000000000000000000000000082169050919050565b600073ffffffffffffffffffffffffffffffffffffffff82169050919050565b6000819050919050565b600063ffffffff82169050919050565b600060ff82169050919050565b82818337600083830152505050565b60005b838110156146d05780820151818401526020810190506146b5565b838111156146df576000848401525b50505050565b600060028204905060018216806146fd57607f821691505b60208210811415614711576147106147ad565b5b50919050565b600061472282614733565b9050919050565b6000819050919050565b600061473e8261481c565b9050919050565b6000819050919050565b7f4e487b7100000000000000000000000000000000000000000000000000000000600052601160045260246000fd5b7f4e487b7100000000000000000000000000000000000000000000000000000000600052601260045260246000fd5b7f4e487b7100000000000000000000000000000000000000000000000000000000600052602260045260246000fd5b7f4e487b7100000000000000000000000000000000000000000000000000000000600052604160045260246000fd5b6000601f19601f8301169050919050565b60008160601b9050919050565b614832816145f6565b811461483d57600080fd5b50565b6148498161461a565b811461485457600080fd5b50565b61486081614626565b811461486b57600080fd5b50565b61487781614630565b811461488257600080fd5b50565b61488e8161467c565b811461489957600080fd5b50565b6148a581614686565b81146148b057600080fd5b5056fea26469706673582212208b7d4f80b16a800b726ade07dbef5f29e7647a5aacd7f9c6057f9e7a1120b48464736f6c63430008000033",
  "immutableReferences": {},
  "source": "// SPDX-License-Identifier: MIT\npragma solidity >=0.4.22 <0.9.0;\nimport \"./ethereum-erc721/src/contracts/tokens/nf-token-metadata.sol\";\nimport \"./ethereum-erc721/src/contracts/ownership/ownable.sol\";\n\ncontract TopCommitMarketplace is NFTokenMetadata, Ownable{\n    uint32 transactionFeePercentage;\n    address payable private marketplaceOwner;\n    uint256 ownerBalance;\n    struct Bid {\n        address payable bidder;\n        uint256 bidInWei;\n        string uri;\n        bool claimed;\n        uint256 startBlockTimestamp;\n        bool flag;\n    }\n    mapping(uint256 => Bid) private auctions;\n    constructor () {\n        marketplaceOwner = payable(msg.sender);\n        transactionFeePercentage = 0;\n        ownerBalance = 0;\n        nftName = \"Top Commits by Questbook\";\n        nftSymbol = \"TCQ\";\n\n    }\n\n\n  function getSigner(bytes32 hash, bytes memory sig) public pure returns (address) {\n    bytes32 r;\n    bytes32 s;\n    uint8 v;\n\n    if (sig.length != 65) {\n      return address(0);\n    }\n\n    assembly {\n      r := mload(add(sig, 32))\n      s := mload(add(sig, 64))\n      v := and(mload(add(sig, 65)), 255)\n    }\n\n    if (v < 27) {\n      v += 27;\n    }\n\n    if (v != 27 && v != 28) {\n      return address(0);\n    }\n\n    return ecrecover(hash, v, r, s);\n  }\n\n    event BidMade(uint256 nftPublicKey, uint256 amount, address user);\n    function bid(uint256 nftPublicKey, string memory uri, bytes memory signature) public payable {\n        bytes32 uriHash = keccak256(abi.encodePacked(uri));\n        bytes32 messageHash = keccak256(abi.encodePacked(\"\\x19Ethereum Signed Message:\\n32\", uriHash));\n        address nftSigner = getSigner(messageHash, signature);\n        require(nftSigner == marketplaceOwner, \"NFT Bids need to be signed by contract owner\");\n        if(auctions[nftPublicKey].flag){\n            require(auctions[nftPublicKey].startBlockTimestamp + (1 days) > block.timestamp, \"Auction has ended\");\n            require(!auctions[nftPublicKey].claimed, \"This auction has ended\");\n            require(msg.value > auctions[nftPublicKey].bidInWei * 11/10, \"Bid should be more than 110% of prev bid\");\n            //refund\n            auctions[nftPublicKey].bidder.transfer(auctions[nftPublicKey].bidInWei);\n        }\n        else {\n            auctions[nftPublicKey].startBlockTimestamp = block.timestamp;\n            auctions[nftPublicKey].uri = uri;\n            auctions[nftPublicKey].claimed = false;\n            auctions[nftPublicKey].flag = true;\n        }\n        auctions[nftPublicKey].bidder = payable(msg.sender);\n        auctions[nftPublicKey].bidInWei = msg.value * (1 - transactionFeePercentage/100);\n        emit BidMade(nftPublicKey, msg.value, msg.sender);\n    }\n\n    function getBid(uint256 nftPublicKey) public view  returns(uint256){\n        return auctions[nftPublicKey].bidInWei;\n    }\n\n    function getAuctionStart(uint256 nftPublicKey) public view returns( uint256 ){\n        return auctions[nftPublicKey].startBlockTimestamp;\n    }\n\n    function setTransactionFeesPercentage(uint32 percentage) public {\n        require(payable(msg.sender) == marketplaceOwner, \"Only owner allowed to change percentage\");\n        require(percentage <= 1, \"Transaction fees percentage cannot be more than 1%\");\n        transactionFeePercentage = percentage;\n    }\n\n    function getTransactionFeesPercentage() public view returns(uint32){\n        return transactionFeePercentage;\n    }\n\n\n\n    event Withdrawn(uint256 nftPublicKey, address user);\n    function withdraw(uint256 nftPublicKey) public payable {\n        ownerBalance += msg.value;\n        require(msg.sender != address(0), \"Unknown user\");\n        require(auctions[nftPublicKey].startBlockTimestamp + (1 days) < block.timestamp, \"Can be withdrawn only after the auction has ended\");\n        require(auctions[nftPublicKey].bidder == msg.sender, \"Can be withdrawn only by the winning bidder\");\n        super._mint(msg.sender, nftPublicKey);\n        super._setTokenUri(nftPublicKey, auctions[nftPublicKey].uri);\n        emit Withdrawn(nftPublicKey, msg.sender);\n    }\n\n    function getWinningBidAddress(uint256 nftPublicKey) public view returns(address payable) {\n        return auctions[nftPublicKey].bidder;\n    }\n\n    function getWinningBidAmount(uint256 nftPublicKey) public view returns(uint256){\n        return auctions[nftPublicKey].bidInWei;\n    }\n\n    event Claimed(uint256 nftPublicKey, address user, uint256 amount);\n    function claim(uint256 nftPublicKey, bytes memory signature) public {\n        bytes32 keyHash = keccak256(abi.encodePacked(nftPublicKey, msg.sender));\n        bytes32 messageHash = keccak256(abi.encodePacked(\"\\x19Ethereum Signed Message:\\n32\", keyHash));\n        require(auctions[nftPublicKey].startBlockTimestamp + (1 days) < block.timestamp, \"Can be claimed only after the auction has ended\");\n        require(getSigner(messageHash, signature) == owner, \"Needs signature from owner to claim auction bids\");\n        auctions[nftPublicKey].claimed = true;\n        payable(msg.sender).transfer(auctions[nftPublicKey].bidInWei);\n        emit Claimed(nftPublicKey, msg.sender, auctions[nftPublicKey].bidInWei);\n    }\n\n\n    function getOwnerBalance() public view returns(uint256){\n      return ownerBalance;\n    }\n\n    function withdrawOnwerBalance() public {\n      payable(owner).transfer(ownerBalance);\n      ownerBalance = 0;\n    }\n\n    function getOwner() public view returns(address payable){\n      return marketplaceOwner;\n    }\n\n    function getCurrentTimestamp() public view returns(uint256){\n      return block.timestamp;\n    }\n\n    function getAuctionEnd(uint256 nftPublicKey) public view returns(uint256) {\n      return auctions[nftPublicKey].startBlockTimestamp + (1 days);\n    }\n}\n\n\n",
  "sourcePath": "/home/madhavan/work/TopCommits/contract/contracts/Migrations.sol",
  "compiler": {
    "name": "solc",
    "version": "0.8.0+commit.c7dfd78e.Emscripten.clang"
  },
  "schemaVersion": "3.4.1",
  "updatedAt": "2021-06-22T00:38:07.597Z",
  "networkType": "ethereum",
  "devdoc": {
    "kind": "dev",
    "methods": {
      "approve(address,uint256)": {
        "details": "Set or reaffirm the approved address for an NFT. This function can be changed to payable.",
        "params": {
          "_approved": "Address to be approved for the given NFT ID.",
          "_tokenId": "ID of the token to be approved."
        }
      },
      "balanceOf(address)": {
        "details": "Returns the number of NFTs owned by `_owner`. NFTs assigned to the zero address are considered invalid, and this function throws for queries about the zero address.",
        "params": {
          "_owner": "Address for whom to query the balance."
        },
        "returns": {
          "_0": "Balance of _owner."
        }
      },
      "getApproved(uint256)": {
        "details": "Get the approved address for a single NFT.",
        "params": {
          "_tokenId": "ID of the NFT to query the approval of."
        },
        "returns": {
          "_0": "Address that _tokenId is approved for."
        }
      },
      "isApprovedForAll(address,address)": {
        "details": "Checks if `_operator` is an approved operator for `_owner`.",
        "params": {
          "_operator": "The address that acts on behalf of the owner.",
          "_owner": "The address that owns the NFTs."
        },
        "returns": {
          "_0": "True if approved for all, false otherwise."
        }
      },
      "name()": {
        "details": "Returns a descriptive name for a collection of NFTokens.",
        "returns": {
          "_name": "Representing name."
        }
      },
      "ownerOf(uint256)": {
        "details": "Returns the address of the owner of the NFT. NFTs assigned to the zero address are considered invalid, and queries about them do throw.",
        "params": {
          "_tokenId": "The identifier for an NFT."
        },
        "returns": {
          "_owner": "Address of _tokenId owner."
        }
      },
      "safeTransferFrom(address,address,uint256)": {
        "details": "Transfers the ownership of an NFT from one address to another address. This function can be changed to payable.",
        "params": {
          "_from": "The current owner of the NFT.",
          "_to": "The new owner.",
          "_tokenId": "The NFT to transfer."
        }
      },
      "safeTransferFrom(address,address,uint256,bytes)": {
        "details": "Transfers the ownership of an NFT from one address to another address. This function can be changed to payable.",
        "params": {
          "_data": "Additional data with no specified format, sent in call to `_to`.",
          "_from": "The current owner of the NFT.",
          "_to": "The new owner.",
          "_tokenId": "The NFT to transfer."
        }
      },
      "setApprovalForAll(address,bool)": {
        "details": "Enables or disables approval for a third party (\"operator\") to manage all of `msg.sender`'s assets. It also emits the ApprovalForAll event.",
        "params": {
          "_approved": "True if the operators is approved, false to revoke approval.",
          "_operator": "Address to add to the set of authorized operators."
        }
      },
      "supportsInterface(bytes4)": {
        "details": "Function to check which interfaces are suported by this contract.",
        "params": {
          "_interfaceID": "Id of the interface."
        },
        "returns": {
          "_0": "True if _interfaceID is supported, false otherwise."
        }
      },
      "symbol()": {
        "details": "Returns an abbreviated name for NFTokens.",
        "returns": {
          "_symbol": "Representing symbol."
        }
      },
      "tokenURI(uint256)": {
        "details": "A distinct URI (RFC 3986) for a given NFT.",
        "params": {
          "_tokenId": "Id for which we want uri."
        },
        "returns": {
          "_0": "URI of _tokenId."
        }
      },
      "transferFrom(address,address,uint256)": {
        "details": "Throws unless `msg.sender` is the current owner, an authorized operator, or the approved address for this NFT. Throws if `_from` is not the current owner. Throws if `_to` is the zero address. Throws if `_tokenId` is not a valid NFT. This function can be changed to payable.",
        "params": {
          "_from": "The current owner of the NFT.",
          "_to": "The new owner.",
          "_tokenId": "The NFT to transfer."
        }
      },
      "transferOwnership(address)": {
        "details": "Allows the current owner to transfer control of the contract to a newOwner.",
        "params": {
          "_newOwner": "The address to transfer ownership to."
        }
      }
    },
    "version": 1
  },
  "userdoc": {
    "kind": "user",
    "methods": {
      "approve(address,uint256)": {
        "notice": "The zero address indicates there is no approved address. Throws unless `msg.sender` is the current NFT owner, or an authorized operator of the current owner."
      },
      "getApproved(uint256)": {
        "notice": "Throws if `_tokenId` is not a valid NFT."
      },
      "safeTransferFrom(address,address,uint256)": {
        "notice": "This works identically to the other function with an extra data parameter, except this function just sets data to \"\""
      },
      "safeTransferFrom(address,address,uint256,bytes)": {
        "notice": "Throws unless `msg.sender` is the current owner, an authorized operator, or the approved address for this NFT. Throws if `_from` is not the current owner. Throws if `_to` is the zero address. Throws if `_tokenId` is not a valid NFT. When transfer is complete, this function checks if `_to` is a smart contract (code size > 0). If so, it calls `onERC721Received` on `_to` and throws if the return value is not `bytes4(keccak256(\"onERC721Received(address,uint256,bytes)\"))`."
      },
      "setApprovalForAll(address,bool)": {
        "notice": "This works even if sender doesn't own any tokens at the time."
      },
      "transferFrom(address,address,uint256)": {
        "notice": "The caller is responsible to confirm that `_to` is capable of receiving NFTs or else they may be permanently lost."
      }
    },
    "version": 1
  }
}