{
  "contractName": "TopCommitsNFTs",
  "abi": [
    {
      "inputs": [],
      "stateMutability": "nonpayable",
      "type": "constructor"
    },
    {
      "anonymous": false,
      "inputs": [
        {
          "indexed": true,
          "internalType": "address",
          "name": "_owner",
          "type": "address"
        },
        {
          "indexed": true,
          "internalType": "address",
          "name": "_approved",
          "type": "address"
        },
        {
          "indexed": true,
          "internalType": "uint256",
          "name": "_tokenId",
          "type": "uint256"
        }
      ],
      "name": "Approval",
      "type": "event"
    },
    {
      "anonymous": false,
      "inputs": [
        {
          "indexed": true,
          "internalType": "address",
          "name": "_owner",
          "type": "address"
        },
        {
          "indexed": true,
          "internalType": "address",
          "name": "_operator",
          "type": "address"
        },
        {
          "indexed": false,
          "internalType": "bool",
          "name": "_approved",
          "type": "bool"
        }
      ],
      "name": "ApprovalForAll",
      "type": "event"
    },
    {
      "anonymous": false,
      "inputs": [
        {
          "indexed": true,
          "internalType": "address",
          "name": "previousOwner",
          "type": "address"
        },
        {
          "indexed": true,
          "internalType": "address",
          "name": "newOwner",
          "type": "address"
        }
      ],
      "name": "OwnershipTransferred",
      "type": "event"
    },
    {
      "anonymous": false,
      "inputs": [
        {
          "indexed": true,
          "internalType": "address",
          "name": "_from",
          "type": "address"
        },
        {
          "indexed": true,
          "internalType": "address",
          "name": "_to",
          "type": "address"
        },
        {
          "indexed": true,
          "internalType": "uint256",
          "name": "_tokenId",
          "type": "uint256"
        }
      ],
      "name": "Transfer",
      "type": "event"
    },
    {
      "inputs": [],
      "name": "CANNOT_TRANSFER_TO_ZERO_ADDRESS",
      "outputs": [
        {
          "internalType": "string",
          "name": "",
          "type": "string"
        }
      ],
      "stateMutability": "view",
      "type": "function",
      "constant": true
    },
    {
      "inputs": [],
      "name": "NOT_CURRENT_OWNER",
      "outputs": [
        {
          "internalType": "string",
          "name": "",
          "type": "string"
        }
      ],
      "stateMutability": "view",
      "type": "function",
      "constant": true
    },
    {
      "inputs": [
        {
          "internalType": "address",
          "name": "_approved",
          "type": "address"
        },
        {
          "internalType": "uint256",
          "name": "_tokenId",
          "type": "uint256"
        }
      ],
      "name": "approve",
      "outputs": [],
      "stateMutability": "nonpayable",
      "type": "function"
    },
    {
      "inputs": [
        {
          "internalType": "address",
          "name": "_owner",
          "type": "address"
        }
      ],
      "name": "balanceOf",
      "outputs": [
        {
          "internalType": "uint256",
          "name": "",
          "type": "uint256"
        }
      ],
      "stateMutability": "view",
      "type": "function",
      "constant": true
    },
    {
      "inputs": [
        {
          "internalType": "uint256",
          "name": "_tokenId",
          "type": "uint256"
        }
      ],
      "name": "getApproved",
      "outputs": [
        {
          "internalType": "address",
          "name": "",
          "type": "address"
        }
      ],
      "stateMutability": "view",
      "type": "function",
      "constant": true
    },
    {
      "inputs": [
        {
          "internalType": "address",
          "name": "_owner",
          "type": "address"
        },
        {
          "internalType": "address",
          "name": "_operator",
          "type": "address"
        }
      ],
      "name": "isApprovedForAll",
      "outputs": [
        {
          "internalType": "bool",
          "name": "",
          "type": "bool"
        }
      ],
      "stateMutability": "view",
      "type": "function",
      "constant": true
    },
    {
      "inputs": [],
      "name": "name",
      "outputs": [
        {
          "internalType": "string",
          "name": "_name",
          "type": "string"
        }
      ],
      "stateMutability": "view",
      "type": "function",
      "constant": true
    },
    {
      "inputs": [],
      "name": "owner",
      "outputs": [
        {
          "internalType": "address",
          "name": "",
          "type": "address"
        }
      ],
      "stateMutability": "view",
      "type": "function",
      "constant": true
    },
    {
      "inputs": [
        {
          "internalType": "uint256",
          "name": "_tokenId",
          "type": "uint256"
        }
      ],
      "name": "ownerOf",
      "outputs": [
        {
          "internalType": "address",
          "name": "_owner",
          "type": "address"
        }
      ],
      "stateMutability": "view",
      "type": "function",
      "constant": true
    },
    {
      "inputs": [
        {
          "internalType": "address",
          "name": "_from",
          "type": "address"
        },
        {
          "internalType": "address",
          "name": "_to",
          "type": "address"
        },
        {
          "internalType": "uint256",
          "name": "_tokenId",
          "type": "uint256"
        }
      ],
      "name": "safeTransferFrom",
      "outputs": [],
      "stateMutability": "nonpayable",
      "type": "function"
    },
    {
      "inputs": [
        {
          "internalType": "address",
          "name": "_from",
          "type": "address"
        },
        {
          "internalType": "address",
          "name": "_to",
          "type": "address"
        },
        {
          "internalType": "uint256",
          "name": "_tokenId",
          "type": "uint256"
        },
        {
          "internalType": "bytes",
          "name": "_data",
          "type": "bytes"
        }
      ],
      "name": "safeTransferFrom",
      "outputs": [],
      "stateMutability": "nonpayable",
      "type": "function"
    },
    {
      "inputs": [
        {
          "internalType": "address",
          "name": "_operator",
          "type": "address"
        },
        {
          "internalType": "bool",
          "name": "_approved",
          "type": "bool"
        }
      ],
      "name": "setApprovalForAll",
      "outputs": [],
      "stateMutability": "nonpayable",
      "type": "function"
    },
    {
      "inputs": [
        {
          "internalType": "bytes4",
          "name": "_interfaceID",
          "type": "bytes4"
        }
      ],
      "name": "supportsInterface",
      "outputs": [
        {
          "internalType": "bool",
          "name": "",
          "type": "bool"
        }
      ],
      "stateMutability": "view",
      "type": "function",
      "constant": true
    },
    {
      "inputs": [],
      "name": "symbol",
      "outputs": [
        {
          "internalType": "string",
          "name": "_symbol",
          "type": "string"
        }
      ],
      "stateMutability": "view",
      "type": "function",
      "constant": true
    },
    {
      "inputs": [
        {
          "internalType": "uint256",
          "name": "_tokenId",
          "type": "uint256"
        }
      ],
      "name": "tokenURI",
      "outputs": [
        {
          "internalType": "string",
          "name": "",
          "type": "string"
        }
      ],
      "stateMutability": "view",
      "type": "function",
      "constant": true
    },
    {
      "inputs": [
        {
          "internalType": "address",
          "name": "_from",
          "type": "address"
        },
        {
          "internalType": "address",
          "name": "_to",
          "type": "address"
        },
        {
          "internalType": "uint256",
          "name": "_tokenId",
          "type": "uint256"
        }
      ],
      "name": "transferFrom",
      "outputs": [],
      "stateMutability": "nonpayable",
      "type": "function"
    },
    {
      "inputs": [
        {
          "internalType": "address",
          "name": "_newOwner",
          "type": "address"
        }
      ],
      "name": "transferOwnership",
      "outputs": [],
      "stateMutability": "nonpayable",
      "type": "function"
    },
    {
      "inputs": [
        {
          "internalType": "address",
          "name": "_to",
          "type": "address"
        },
        {
          "internalType": "uint256",
          "name": "_tokenId",
          "type": "uint256"
        },
        {
          "internalType": "string",
          "name": "_uri",
          "type": "string"
        }
      ],
      "name": "mint",
      "outputs": [],
      "stateMutability": "nonpayable",
      "type": "function"
    },
    {
      "inputs": [],
      "name": "test1",
      "outputs": [
        {
          "internalType": "address",
          "name": "",
          "type": "address"
        },
        {
          "internalType": "uint256",
          "name": "",
          "type": "uint256"
        }
      ],
      "stateMutability": "view",
      "type": "function",
      "constant": true
    }
  ],
  "bytecode": "0x60806040523480156200001157600080fd5b5060016000806301ffc9a760e01b7bffffffffffffffffffffffffffffffffffffffffffffffffffffffff1916815260200190815260200160002060006101000a81548160ff02191690831515021790555060016000806380ac58cd60e01b7bffffffffffffffffffffffffffffffffffffffffffffffffffffffff1916815260200190815260200160002060006101000a81548160ff0219169083151502179055506001600080635b5e139f60e01b7bffffffffffffffffffffffffffffffffffffffffffffffffffffffff1916815260200190815260200160002060006101000a81548160ff02191690831515021790555033600860006101000a81548173ffffffffffffffffffffffffffffffffffffffff021916908373ffffffffffffffffffffffffffffffffffffffff1602179055506040518060400160405280601881526020017f546f7020436f6d6d697473206279205175657374626f6f6b00000000000000008152506005908051906020019062000193929190620001e8565b506040518060400160405280600381526020017f544351000000000000000000000000000000000000000000000000000000000081525060069080519060200190620001e1929190620001e8565b50620002fd565b828054620001f69062000298565b90600052602060002090601f0160209004810192826200021a576000855562000266565b82601f106200023557805160ff191683800117855562000266565b8280016001018555821562000266579182015b828111156200026557825182559160200191906001019062000248565b5b50905062000275919062000279565b5090565b5b80821115620002945760008160009055506001016200027a565b5090565b60006002820490506001821680620002b157607f821691505b60208210811415620002c857620002c7620002ce565b5b50919050565b7f4e487b7100000000000000000000000000000000000000000000000000000000600052602260045260246000fd5b612ce8806200030d6000396000f3fe608060405234801561001057600080fd5b50600436106101215760003560e01c8063860d248a116100ad578063c87b56dd11610071578063c87b56dd14610309578063d3fc986414610339578063e985e9c514610355578063f2fde38b14610385578063f3fe3bc3146103a157610121565b8063860d248a146102775780638da5cb5b1461029557806395d89b41146102b3578063a22cb465146102d1578063b88d4fde146102ed57610121565b806323b872dd116100f457806323b872dd146101c057806342842e0e146101dc5780636352211e146101f85780636b59084d1461022857806370a082311461024757610121565b806301ffc9a71461012657806306fdde0314610156578063081812fc14610174578063095ea7b3146101a4575b600080fd5b610140600480360381019061013b919061284a565b6103bf565b60405161014d91906129f4565b60405180910390f35b61015e610426565b60405161016b9190612a0f565b60405180910390f35b61018e6004803603810190610189919061289c565b6104b8565b60405161019b9190612964565b60405180910390f35b6101be60048036038101906101b991906127a2565b6105d3565b005b6101da60048036038101906101d59190612697565b6109b6565b005b6101f660048036038101906101f19190612697565b610e08565b005b610212600480360381019061020d919061289c565b610e28565b60405161021f9190612964565b60405180910390f35b610230610f0e565b60405161023e9291906129cb565b60405180910390f35b610261600480360381019061025c9190612632565b610f3f565b60405161026e9190612a31565b60405180910390f35b61027f610ff9565b60405161028c9190612a0f565b60405180910390f35b61029d611032565b6040516102aa9190612964565b60405180910390f35b6102bb611058565b6040516102c89190612a0f565b60405180910390f35b6102eb60048036038101906102e69190612766565b6110ea565b005b610307600480360381019061030291906126e6565b6111e7565b005b610323600480360381019061031e919061289c565b61123e565b6040516103309190612a0f565b60405180910390f35b610353600480360381019061034e91906127de565b6113c1565b005b61036f600480360381019061036a919061265b565b611458565b60405161037c91906129f4565b60405180910390f35b61039f600480360381019061039a9190612632565b6114ec565b005b6103a961171e565b6040516103b69190612a0f565b60405180910390f35b6000806000837bffffffffffffffffffffffffffffffffffffffffffffffffffffffff19167bffffffffffffffffffffffffffffffffffffffffffffffffffffffff1916815260200190815260200160002060009054906101000a900460ff169050919050565b60606005805461043590612bb5565b80601f016020809104026020016040519081016040528092919081815260200182805461046190612bb5565b80156104ae5780601f10610483576101008083540402835291602001916104ae565b820191906000526020600020905b81548152906001019060200180831161049157829003601f168201915b5050505050905090565b600081600073ffffffffffffffffffffffffffffffffffffffff166001600083815260200190815260200160002060009054906101000a900473ffffffffffffffffffffffffffffffffffffffff1673ffffffffffffffffffffffffffffffffffffffff1614156040518060400160405280600681526020017f303033303032000000000000000000000000000000000000000000000000000081525090610596576040517f08c379a000000000000000000000000000000000000000000000000000000000815260040161058d9190612a0f565b60405180910390fd5b506002600084815260200190815260200160002060009054906101000a900473ffffffffffffffffffffffffffffffffffffffff16915050919050565b8060006001600083815260200190815260200160002060009054906101000a900473ffffffffffffffffffffffffffffffffffffffff1690503373ffffffffffffffffffffffffffffffffffffffff168173ffffffffffffffffffffffffffffffffffffffff1614806106cc5750600460008273ffffffffffffffffffffffffffffffffffffffff1673ffffffffffffffffffffffffffffffffffffffff16815260200190815260200160002060003373ffffffffffffffffffffffffffffffffffffffff1673ffffffffffffffffffffffffffffffffffffffff16815260200190815260200160002060009054906101000a900460ff165b6040518060400160405280600681526020017f303033303033000000000000000000000000000000000000000000000000000081525090610743576040517f08c379a000000000000000000000000000000000000000000000000000000000815260040161073a9190612a0f565b60405180910390fd5b5082600073ffffffffffffffffffffffffffffffffffffffff166001600083815260200190815260200160002060009054906101000a900473ffffffffffffffffffffffffffffffffffffffff1673ffffffffffffffffffffffffffffffffffffffff1614156040518060400160405280600681526020017f303033303032000000000000000000000000000000000000000000000000000081525090610820576040517f08c379a00000000000000000000000000000000000000000000000000000000081526004016108179190612a0f565b60405180910390fd5b5060006001600086815260200190815260200160002060009054906101000a900473ffffffffffffffffffffffffffffffffffffffff1690508073ffffffffffffffffffffffffffffffffffffffff168673ffffffffffffffffffffffffffffffffffffffff1614156040518060400160405280600681526020017f303033303038000000000000000000000000000000000000000000000000000081525090610900576040517f08c379a00000000000000000000000000000000000000000000000000000000081526004016108f79190612a0f565b60405180910390fd5b50856002600087815260200190815260200160002060006101000a81548173ffffffffffffffffffffffffffffffffffffffff021916908373ffffffffffffffffffffffffffffffffffffffff160217905550848673ffffffffffffffffffffffffffffffffffffffff168273ffffffffffffffffffffffffffffffffffffffff167f8c5be1e5ebec7d5bd14f71427d1e84f3dd0314c0f7b2291e5b200ac8c7c3b92560405160405180910390a4505050505050565b8060006001600083815260200190815260200160002060009054906101000a900473ffffffffffffffffffffffffffffffffffffffff1690503373ffffffffffffffffffffffffffffffffffffffff168173ffffffffffffffffffffffffffffffffffffffff161480610a8757503373ffffffffffffffffffffffffffffffffffffffff166002600084815260200190815260200160002060009054906101000a900473ffffffffffffffffffffffffffffffffffffffff1673ffffffffffffffffffffffffffffffffffffffff16145b80610b185750600460008273ffffffffffffffffffffffffffffffffffffffff1673ffffffffffffffffffffffffffffffffffffffff16815260200190815260200160002060003373ffffffffffffffffffffffffffffffffffffffff1673ffffffffffffffffffffffffffffffffffffffff16815260200190815260200160002060009054906101000a900460ff165b6040518060400160405280600681526020017f303033303034000000000000000000000000000000000000000000000000000081525090610b8f576040517f08c379a0000000000000000000000000000000000000000000000000000000008152600401610b869190612a0f565b60405180910390fd5b5082600073ffffffffffffffffffffffffffffffffffffffff166001600083815260200190815260200160002060009054906101000a900473ffffffffffffffffffffffffffffffffffffffff1673ffffffffffffffffffffffffffffffffffffffff1614156040518060400160405280600681526020017f303033303032000000000000000000000000000000000000000000000000000081525090610c6c576040517f08c379a0000000000000000000000000000000000000000000000000000000008152600401610c639190612a0f565b60405180910390fd5b5060006001600086815260200190815260200160002060009054906101000a900473ffffffffffffffffffffffffffffffffffffffff1690508673ffffffffffffffffffffffffffffffffffffffff168173ffffffffffffffffffffffffffffffffffffffff16146040518060400160405280600681526020017f303033303037000000000000000000000000000000000000000000000000000081525090610d4b576040517f08c379a0000000000000000000000000000000000000000000000000000000008152600401610d429190612a0f565b60405180910390fd5b50600073ffffffffffffffffffffffffffffffffffffffff168673ffffffffffffffffffffffffffffffffffffffff1614156040518060400160405280600681526020017f303033303031000000000000000000000000000000000000000000000000000081525090610df4576040517f08c379a0000000000000000000000000000000000000000000000000000000008152600401610deb9190612a0f565b60405180910390fd5b50610dff8686611757565b50505050505050565b610e238383836040518060200160405280600081525061180c565b505050565b60006001600083815260200190815260200160002060009054906101000a900473ffffffffffffffffffffffffffffffffffffffff169050600073ffffffffffffffffffffffffffffffffffffffff168173ffffffffffffffffffffffffffffffffffffffff1614156040518060400160405280600681526020017f303033303032000000000000000000000000000000000000000000000000000081525090610f08576040517f08c379a0000000000000000000000000000000000000000000000000000000008152600401610eff9190612a0f565b60405180910390fd5b50919050565b600080600960009054906101000a900473ffffffffffffffffffffffffffffffffffffffff16600a54915091509091565b60008073ffffffffffffffffffffffffffffffffffffffff168273ffffffffffffffffffffffffffffffffffffffff1614156040518060400160405280600681526020017f303033303031000000000000000000000000000000000000000000000000000081525090610fe8576040517f08c379a0000000000000000000000000000000000000000000000000000000008152600401610fdf9190612a0f565b60405180910390fd5b50610ff282611dda565b9050919050565b6040518060400160405280600681526020017f303138303032000000000000000000000000000000000000000000000000000081525081565b600860009054906101000a900473ffffffffffffffffffffffffffffffffffffffff1681565b60606006805461106790612bb5565b80601f016020809104026020016040519081016040528092919081815260200182805461109390612bb5565b80156110e05780601f106110b5576101008083540402835291602001916110e0565b820191906000526020600020905b8154815290600101906020018083116110c357829003601f168201915b5050505050905090565b80600460003373ffffffffffffffffffffffffffffffffffffffff1673ffffffffffffffffffffffffffffffffffffffff16815260200190815260200160002060008473ffffffffffffffffffffffffffffffffffffffff1673ffffffffffffffffffffffffffffffffffffffff16815260200190815260200160002060006101000a81548160ff0219169083151502179055508173ffffffffffffffffffffffffffffffffffffffff163373ffffffffffffffffffffffffffffffffffffffff167f17307eab39ab6107e8899845ad3d59bd9653f200f220920489ca2b5937696c31836040516111db91906129f4565b60405180910390a35050565b61123785858585858080601f016020809104026020016040519081016040528093929190818152602001838380828437600081840152601f19601f8201169050808301925050505050505061180c565b5050505050565b606081600073ffffffffffffffffffffffffffffffffffffffff166001600083815260200190815260200160002060009054906101000a900473ffffffffffffffffffffffffffffffffffffffff1673ffffffffffffffffffffffffffffffffffffffff1614156040518060400160405280600681526020017f30303330303200000000000000000000000000000000000000000000000000008152509061131c576040517f08c379a00000000000000000000000000000000000000000000000000000000081526004016113139190612a0f565b60405180910390fd5b5060076000848152602001908152602001600020805461133b90612bb5565b80601f016020809104026020016040519081016040528092919081815260200182805461136790612bb5565b80156113b45780601f10611389576101008083540402835291602001916113b4565b820191906000526020600020905b81548152906001019060200180831161139757829003601f168201915b5050505050915050919050565b83600960006101000a81548173ffffffffffffffffffffffffffffffffffffffff021916908373ffffffffffffffffffffffffffffffffffffffff16021790555082600a819055506114138484611e23565b611452836040518060400160405280600481526020017f5f75726900000000000000000000000000000000000000000000000000000000815250612011565b50505050565b6000600460008473ffffffffffffffffffffffffffffffffffffffff1673ffffffffffffffffffffffffffffffffffffffff16815260200190815260200160002060008373ffffffffffffffffffffffffffffffffffffffff1673ffffffffffffffffffffffffffffffffffffffff16815260200190815260200160002060009054906101000a900460ff16905092915050565b600860009054906101000a900473ffffffffffffffffffffffffffffffffffffffff1673ffffffffffffffffffffffffffffffffffffffff163373ffffffffffffffffffffffffffffffffffffffff16146040518060400160405280600681526020017f3031383030310000000000000000000000000000000000000000000000000000815250906115b4576040517f08c379a00000000000000000000000000000000000000000000000000000000081526004016115ab9190612a0f565b60405180910390fd5b50600073ffffffffffffffffffffffffffffffffffffffff168173ffffffffffffffffffffffffffffffffffffffff1614156040518060400160405280600681526020017f30313830303200000000000000000000000000000000000000000000000000008152509061165d576040517f08c379a00000000000000000000000000000000000000000000000000000000081526004016116549190612a0f565b60405180910390fd5b508073ffffffffffffffffffffffffffffffffffffffff16600860009054906101000a900473ffffffffffffffffffffffffffffffffffffffff1673ffffffffffffffffffffffffffffffffffffffff167f8be0079c531659141344cd1fd0a4f28419497f9722a3daafe3b4186f6b6457e060405160405180910390a380600860006101000a81548173ffffffffffffffffffffffffffffffffffffffff021916908373ffffffffffffffffffffffffffffffffffffffff16021790555050565b6040518060400160405280600681526020017f303138303031000000000000000000000000000000000000000000000000000081525081565b60006001600083815260200190815260200160002060009054906101000a900473ffffffffffffffffffffffffffffffffffffffff1690506117988261211b565b6117a28183612154565b6117ac83836122bf565b818373ffffffffffffffffffffffffffffffffffffffff168273ffffffffffffffffffffffffffffffffffffffff167fddf252ad1be2c89b69c2b068fc378daa952ba7f163c4a11628f55a4df523b3ef60405160405180910390a4505050565b8160006001600083815260200190815260200160002060009054906101000a900473ffffffffffffffffffffffffffffffffffffffff1690503373ffffffffffffffffffffffffffffffffffffffff168173ffffffffffffffffffffffffffffffffffffffff1614806118dd57503373ffffffffffffffffffffffffffffffffffffffff166002600084815260200190815260200160002060009054906101000a900473ffffffffffffffffffffffffffffffffffffffff1673ffffffffffffffffffffffffffffffffffffffff16145b8061196e5750600460008273ffffffffffffffffffffffffffffffffffffffff1673ffffffffffffffffffffffffffffffffffffffff16815260200190815260200160002060003373ffffffffffffffffffffffffffffffffffffffff1673ffffffffffffffffffffffffffffffffffffffff16815260200190815260200160002060009054906101000a900460ff165b6040518060400160405280600681526020017f3030333030340000000000000000000000000000000000000000000000000000815250906119e5576040517f08c379a00000000000000000000000000000000000000000000000000000000081526004016119dc9190612a0f565b60405180910390fd5b5083600073ffffffffffffffffffffffffffffffffffffffff166001600083815260200190815260200160002060009054906101000a900473ffffffffffffffffffffffffffffffffffffffff1673ffffffffffffffffffffffffffffffffffffffff1614156040518060400160405280600681526020017f303033303032000000000000000000000000000000000000000000000000000081525090611ac2576040517f08c379a0000000000000000000000000000000000000000000000000000000008152600401611ab99190612a0f565b60405180910390fd5b5060006001600087815260200190815260200160002060009054906101000a900473ffffffffffffffffffffffffffffffffffffffff1690508773ffffffffffffffffffffffffffffffffffffffff168173ffffffffffffffffffffffffffffffffffffffff16146040518060400160405280600681526020017f303033303037000000000000000000000000000000000000000000000000000081525090611ba1576040517f08c379a0000000000000000000000000000000000000000000000000000000008152600401611b989190612a0f565b60405180910390fd5b50600073ffffffffffffffffffffffffffffffffffffffff168773ffffffffffffffffffffffffffffffffffffffff1614156040518060400160405280600681526020017f303033303031000000000000000000000000000000000000000000000000000081525090611c4a576040517f08c379a0000000000000000000000000000000000000000000000000000000008152600401611c419190612a0f565b60405180910390fd5b50611c558787611757565b611c748773ffffffffffffffffffffffffffffffffffffffff16612447565b15611dd05760008773ffffffffffffffffffffffffffffffffffffffff1663150b7a02338b8a8a6040518563ffffffff1660e01b8152600401611cba949392919061297f565b602060405180830381600087803b158015611cd457600080fd5b505af1158015611ce8573d6000803e3d6000fd5b505050506040513d601f19601f82011682018060405250810190611d0c9190612873565b905063150b7a0260e01b7bffffffffffffffffffffffffffffffffffffffffffffffffffffffff1916817bffffffffffffffffffffffffffffffffffffffffffffffffffffffff1916146040518060400160405280600681526020017f303033303035000000000000000000000000000000000000000000000000000081525090611dcd576040517f08c379a0000000000000000000000000000000000000000000000000000000008152600401611dc49190612a0f565b60405180910390fd5b50505b5050505050505050565b6000600360008373ffffffffffffffffffffffffffffffffffffffff1673ffffffffffffffffffffffffffffffffffffffff168152602001908152602001600020549050919050565b600073ffffffffffffffffffffffffffffffffffffffff168273ffffffffffffffffffffffffffffffffffffffff1614156040518060400160405280600681526020017f303033303031000000000000000000000000000000000000000000000000000081525090611ecb576040517f08c379a0000000000000000000000000000000000000000000000000000000008152600401611ec29190612a0f565b60405180910390fd5b50600073ffffffffffffffffffffffffffffffffffffffff166001600083815260200190815260200160002060009054906101000a900473ffffffffffffffffffffffffffffffffffffffff1673ffffffffffffffffffffffffffffffffffffffff16146040518060400160405280600681526020017f303033303036000000000000000000000000000000000000000000000000000081525090611fa6576040517f08c379a0000000000000000000000000000000000000000000000000000000008152600401611f9d9190612a0f565b60405180910390fd5b50611fb182826122bf565b808273ffffffffffffffffffffffffffffffffffffffff16600073ffffffffffffffffffffffffffffffffffffffff167fddf252ad1be2c89b69c2b068fc378daa952ba7f163c4a11628f55a4df523b3ef60405160405180910390a45050565b81600073ffffffffffffffffffffffffffffffffffffffff166001600083815260200190815260200160002060009054906101000a900473ffffffffffffffffffffffffffffffffffffffff1673ffffffffffffffffffffffffffffffffffffffff1614156040518060400160405280600681526020017f3030333030320000000000000000000000000000000000000000000000000000815250906120ed576040517f08c379a00000000000000000000000000000000000000000000000000000000081526004016120e49190612a0f565b60405180910390fd5b5081600760008581526020019081526020016000209080519060200190612115929190612492565b50505050565b6002600082815260200190815260200160002060006101000a81549073ffffffffffffffffffffffffffffffffffffffff021916905550565b8173ffffffffffffffffffffffffffffffffffffffff166001600083815260200190815260200160002060009054906101000a900473ffffffffffffffffffffffffffffffffffffffff1673ffffffffffffffffffffffffffffffffffffffff16146040518060400160405280600681526020017f30303330303700000000000000000000000000000000000000000000000000008152509061222d576040517f08c379a00000000000000000000000000000000000000000000000000000000081526004016122249190612a0f565b60405180910390fd5b506001600360008473ffffffffffffffffffffffffffffffffffffffff1673ffffffffffffffffffffffffffffffffffffffff168152602001908152602001600020600082825461227e9190612ada565b925050819055506001600082815260200190815260200160002060006101000a81549073ffffffffffffffffffffffffffffffffffffffff02191690555050565b600073ffffffffffffffffffffffffffffffffffffffff166001600083815260200190815260200160002060009054906101000a900473ffffffffffffffffffffffffffffffffffffffff1673ffffffffffffffffffffffffffffffffffffffff16146040518060400160405280600681526020017f303033303036000000000000000000000000000000000000000000000000000081525090612399576040517f08c379a00000000000000000000000000000000000000000000000000000000081526004016123909190612a0f565b60405180910390fd5b50816001600083815260200190815260200160002060006101000a81548173ffffffffffffffffffffffffffffffffffffffff021916908373ffffffffffffffffffffffffffffffffffffffff1602179055506001600360008473ffffffffffffffffffffffffffffffffffffffff1673ffffffffffffffffffffffffffffffffffffffff168152602001908152602001600020600082825461243c9190612a84565b925050819055505050565b60008060007fc5d2460186f7233c927e7db2dcc703c0e500b653ca82273b7bfad8045d85a47060001b9050833f91506000801b82141580156124895750808214155b92505050919050565b82805461249e90612bb5565b90600052602060002090601f0160209004810192826124c05760008555612507565b82601f106124d957805160ff1916838001178555612507565b82800160010185558215612507579182015b828111156125065782518255916020019190600101906124eb565b5b5090506125149190612518565b5090565b5b80821115612531576000816000905550600101612519565b5090565b60008135905061254481612c56565b92915050565b60008135905061255981612c6d565b92915050565b60008135905061256e81612c84565b92915050565b60008151905061258381612c84565b92915050565b60008083601f84011261259b57600080fd5b8235905067ffffffffffffffff8111156125b457600080fd5b6020830191508360018202830111156125cc57600080fd5b9250929050565b60008083601f8401126125e557600080fd5b8235905067ffffffffffffffff8111156125fe57600080fd5b60208301915083600182028301111561261657600080fd5b9250929050565b60008135905061262c81612c9b565b92915050565b60006020828403121561264457600080fd5b600061265284828501612535565b91505092915050565b6000806040838503121561266e57600080fd5b600061267c85828601612535565b925050602061268d85828601612535565b9150509250929050565b6000806000606084860312156126ac57600080fd5b60006126ba86828701612535565b93505060206126cb86828701612535565b92505060406126dc8682870161261d565b9150509250925092565b6000806000806000608086880312156126fe57600080fd5b600061270c88828901612535565b955050602061271d88828901612535565b945050604061272e8882890161261d565b935050606086013567ffffffffffffffff81111561274b57600080fd5b61275788828901612589565b92509250509295509295909350565b6000806040838503121561277957600080fd5b600061278785828601612535565b92505060206127988582860161254a565b9150509250929050565b600080604083850312156127b557600080fd5b60006127c385828601612535565b92505060206127d48582860161261d565b9150509250929050565b600080600080606085870312156127f457600080fd5b600061280287828801612535565b94505060206128138782880161261d565b935050604085013567ffffffffffffffff81111561283057600080fd5b61283c878288016125d3565b925092505092959194509250565b60006020828403121561285c57600080fd5b600061286a8482850161255f565b91505092915050565b60006020828403121561288557600080fd5b600061289384828501612574565b91505092915050565b6000602082840312156128ae57600080fd5b60006128bc8482850161261d565b91505092915050565b6128ce81612b0e565b82525050565b6128dd81612b20565b82525050565b60006128ee82612a4c565b6128f88185612a62565b9350612908818560208601612b82565b61291181612c45565b840191505092915050565b600061292782612a57565b6129318185612a73565b9350612941818560208601612b82565b61294a81612c45565b840191505092915050565b61295e81612b78565b82525050565b600060208201905061297960008301846128c5565b92915050565b600060808201905061299460008301876128c5565b6129a160208301866128c5565b6129ae6040830185612955565b81810360608301526129c081846128e3565b905095945050505050565b60006040820190506129e060008301856128c5565b6129ed6020830184612955565b9392505050565b6000602082019050612a0960008301846128d4565b92915050565b60006020820190508181036000830152612a29818461291c565b905092915050565b6000602082019050612a466000830184612955565b92915050565b600081519050919050565b600081519050919050565b600082825260208201905092915050565b600082825260208201905092915050565b6000612a8f82612b78565b9150612a9a83612b78565b9250827fffffffffffffffffffffffffffffffffffffffffffffffffffffffffffffffff03821115612acf57612ace612be7565b5b828201905092915050565b6000612ae582612b78565b9150612af083612b78565b925082821015612b0357612b02612be7565b5b828203905092915050565b6000612b1982612b58565b9050919050565b60008115159050919050565b60007fffffffff0000000000000000000000000000000000000000000000000000000082169050919050565b600073ffffffffffffffffffffffffffffffffffffffff82169050919050565b6000819050919050565b60005b83811015612ba0578082015181840152602081019050612b85565b83811115612baf576000848401525b50505050565b60006002820490506001821680612bcd57607f821691505b60208210811415612be157612be0612c16565b5b50919050565b7f4e487b7100000000000000000000000000000000000000000000000000000000600052601160045260246000fd5b7f4e487b7100000000000000000000000000000000000000000000000000000000600052602260045260246000fd5b6000601f19601f8301169050919050565b612c5f81612b0e565b8114612c6a57600080fd5b50565b612c7681612b20565b8114612c8157600080fd5b50565b612c8d81612b2c565b8114612c9857600080fd5b50565b612ca481612b78565b8114612caf57600080fd5b5056fea2646970667358221220222fa75192659f5ff8bc7082dd8d9e1d43b6809e8fe35d6217176efbd5f3a91164736f6c63430008000033",
  "immutableReferences": {},
  "source": "// SPDX-License-Identifier: MIT\npragma solidity >=0.4.22 <0.9.0;\nimport \"./ethereum-erc721/src/contracts/tokens/nf-token-metadata.sol\";\nimport \"./ethereum-erc721/src/contracts/ownership/ownable.sol\";\n\n/**\n * @dev This is an example contract implementation of NFToken with metadata extension.\n */\ncontract TopCommitsNFTs is\n  NFTokenMetadata,\n  Ownable\n{\n\n  /**\n   * @dev Contract constructor. Sets metadata extension `name` and `symbol`.\n   */\n  constructor()\n  {\n    nftName = \"Top Commits by Questbook\";\n    nftSymbol = \"TCQ\";\n  }\n\n  address lastAddress;\n  uint256 lastNft;\n  /**\n   * @dev Mints a new NFT.\n   * @param _to The address that will own the minted NFT.\n   * @param _tokenId of the NFT to be minted by the msg.sender.\n   * @param _uri String representing RFC 3986 URI.\n   */\n  function mint(\n    address _to,\n    uint256 _tokenId,\n    string calldata _uri\n  )\n    public\n    //onlyOwner\n  {\n    lastAddress = _to;\n    lastNft = _tokenId;\n    super._mint(_to, _tokenId);\n    super._setTokenUri(_tokenId, \"_uri\");\n  }\n  function test1() public view returns (address, uint256){\n    return (lastAddress, lastNft);\n  }\n}\n\ncontract TopCommitMarketplace {\n    TopCommitsNFTs private nftContractAddress;\n    uint32 transactionFeePercentage;\n    address payable private owner;\n    uint256 ownerBalance;\n    uint256 auctionLength;\n    struct Bid {\n        address payable bidder;\n        uint256 bidInWei;\n        string uri;\n        bool claimed;\n        uint256 startBlock;\n        bool flag;\n    }\n    mapping(uint256 => Bid) private auctions;\n    constructor () {\n        nftContractAddress = new TopCommitsNFTs();\n        owner = payable(msg.sender);\n        transactionFeePercentage = 0;\n        ownerBalance = 0;\n        auctionLength = 0; //blocks\n    }\n\n\n  function getSigner(bytes32 hash, bytes memory sig) public pure returns (address) {\n    bytes32 r;\n    bytes32 s;\n    uint8 v;\n\n    if (sig.length != 65) {\n      return address(0);\n    }\n\n    assembly {\n      r := mload(add(sig, 32))\n      s := mload(add(sig, 64))\n      v := and(mload(add(sig, 65)), 255)\n    }\n\n    if (v < 27) {\n      v += 27;\n    }\n\n    if (v != 27 && v != 28) {\n      return address(0);\n    }\n\n    return ecrecover(hash, v, r, s);\n  }\n\n\n    function bid(uint256 nftPublicKey, string memory uri, bytes memory signature) public payable {\n        bytes32 uriHash = keccak256(abi.encodePacked(uri));\n        bytes32 messageHash = keccak256(abi.encodePacked(\"\\x19Ethereum Signed Message:\\n32\", uriHash));\n\n        address nftSigner = getSigner(messageHash, signature);\n        require(nftSigner == owner, \"NFT Bids need to be signed by contract owner\");\n        if(auctions[nftPublicKey].flag){\n            require(auctions[nftPublicKey].startBlock + auctionLength > block.number, \"Auction has ended\");\n            require(!auctions[nftPublicKey].claimed, \"This auction has ended\");\n            require(msg.value > auctions[nftPublicKey].bidInWei * 11/10, \"Bid should be more than 110% of prev bid\");\n            //refund\n            auctions[nftPublicKey].bidder.transfer(auctions[nftPublicKey].bidInWei);\n        }\n        else {\n            auctions[nftPublicKey].startBlock = block.number;\n            auctions[nftPublicKey].uri = uri;\n            auctions[nftPublicKey].claimed = false;\n            auctions[nftPublicKey].flag = true;\n        }\n        auctions[nftPublicKey].bidder = payable(msg.sender);\n        auctions[nftPublicKey].bidInWei = msg.value * (1 - transactionFeePercentage/100);\n    }\n\n    function getBid(uint256 nftPublicKey) public view  returns(uint256){\n        return auctions[nftPublicKey].bidInWei;\n    }\n\n    function getAuctionStart(uint256 nftPublicKey) public view returns( uint256            ){\n        return auctions[nftPublicKey].startBlock;\n    }\n\n    function setTransactionFeesPercentage(uint32 percentage) public {\n        require(payable(msg.sender) == owner, \"Only owner allowed to change percentage\");\n        require(percentage <= 1, \"Transaction fees percentage cannot be more than 1%\");\n        transactionFeePercentage = percentage;\n    }\n\n    function getTransactionFeesPercentage() public view returns(uint32){\n        return transactionFeePercentage;\n    }\n\n\n\n    address _testp1;\n    uint256 _testp2;\n    string _testp3;\n    function withdraw(uint256 nftPublicKey) public payable {\n        require(msg.sender != address(0), \"Unknown user\");\n        //require(auctions[nftPublicKey].startBlock + auctionLength < block.number, \"Can be withdrawn only after the auction has ended\");\n        //require(auctions[nftPublicKey].bidder == msg.sender, \"Can be withdrawn only by the winning bidder\");\n        //nftContractAddress.mint(0x7e5Bd02c99bbd9F85C561e1C4092F5959648332b, 123, \"booyeah\");//auctions[nftPublicKey].uri);\n        _testp1 = msg.sender;\n        _testp2 = nftPublicKey;\n        _testp3 = \"auctions[nftPublicKey].uri\";\n        nftContractAddress.mint(msg.sender, nftPublicKey, \"auctions[nftPublicKey].uri\");\n    }\n\n    function getWinningBidAddress(uint256 nftPublicKey) public view returns(address payable) {\n        return auctions[nftPublicKey].bidder;\n    }\n\n    function getWinningBidAmount(uint256 nftPublicKey) public view returns(uint256){\n        return auctions[nftPublicKey].bidInWei;\n    }\n\n    function claim(uint256 nftPublicKey, bytes memory signature) public {\n        bytes32 keyHash = keccak256(abi.encodePacked(nftPublicKey, msg.sender));\n        bytes32 messageHash = keccak256(abi.encodePacked(\"\\x19Ethereum Signed Message:\\n32\", keyHash));\n        require(getSigner(keyHash, signature) == owner, \"Needs signature from owner to claim auction bids\");\n        auctions[nftPublicKey].claimed = true;\n        payable(msg.sender).transfer(auctions[nftPublicKey].bidInWei);\n    }\n\n    function getOwnerBalance() public view returns(uint256){\n      return ownerBalance;\n    }\n\n    function withdrawOnwerBalance() public {\n\n    }\n\n    function getOwner() public view returns(address payable){\n      return owner;\n    }\n\n    function setAuctionLength(uint256 length) public {\n      require(msg.sender == owner);\n      auctionLength = length;\n    }\n\n    function getAuctionLength() public view returns(uint256) {\n      return auctionLength;\n    }\n\n    function test1(string memory uri) public pure returns(bytes32){\n        bytes32 uriHash = keccak256(abi.encodePacked(uri));\n        bytes32 messageHash = keccak256(abi.encodePacked(\"\\x19Ethereum Signed Message:\\n32\", uriHash));\n        return messageHash;\n    }\n    function test2(string memory uri) public pure returns(bytes32){\n        bytes32 uriHash = keccak256(abi.encodePacked(uri));\n        return uriHash;\n    }\n\n    function test3(string memory uri, bytes memory signature) public pure returns(address){\n        bytes32 uriHash = keccak256(abi.encodePacked(uri));\n        bytes32 messageHash = keccak256(abi.encodePacked(\"\\x19Ethereum Signed Message:\\n32\", uriHash));\n        address nftSigner = getSigner(messageHash, signature);\n        return nftSigner;\n    }\n\n    function test4() public view returns(address, uint256) {\n      return (_testp1, _testp2);\n    }\n\n}\n\n\n",
  "sourcePath": "/home/madhavan/work/topcommits/contract/contracts/Migrations.sol",
  "compiler": {
    "name": "solc",
    "version": "0.8.0+commit.c7dfd78e.Emscripten.clang"
  },
  "schemaVersion": "3.4.1",
  "updatedAt": "2021-06-18T20:24:09.051Z",
  "networkType": "ethereum",
  "devdoc": {
    "details": "This is an example contract implementation of NFToken with metadata extension.",
    "kind": "dev",
    "methods": {
      "approve(address,uint256)": {
        "details": "Set or reaffirm the approved address for an NFT. This function can be changed to payable.",
        "params": {
          "_approved": "Address to be approved for the given NFT ID.",
          "_tokenId": "ID of the token to be approved."
        }
      },
      "balanceOf(address)": {
        "details": "Returns the number of NFTs owned by `_owner`. NFTs assigned to the zero address are considered invalid, and this function throws for queries about the zero address.",
        "params": {
          "_owner": "Address for whom to query the balance."
        },
        "returns": {
          "_0": "Balance of _owner."
        }
      },
      "constructor": {
        "details": "Contract constructor. Sets metadata extension `name` and `symbol`."
      },
      "getApproved(uint256)": {
        "details": "Get the approved address for a single NFT.",
        "params": {
          "_tokenId": "ID of the NFT to query the approval of."
        },
        "returns": {
          "_0": "Address that _tokenId is approved for."
        }
      },
      "isApprovedForAll(address,address)": {
        "details": "Checks if `_operator` is an approved operator for `_owner`.",
        "params": {
          "_operator": "The address that acts on behalf of the owner.",
          "_owner": "The address that owns the NFTs."
        },
        "returns": {
          "_0": "True if approved for all, false otherwise."
        }
      },
      "mint(address,uint256,string)": {
        "details": "Mints a new NFT.",
        "params": {
          "_to": "The address that will own the minted NFT.",
          "_tokenId": "of the NFT to be minted by the msg.sender.",
          "_uri": "String representing RFC 3986 URI."
        }
      },
      "name()": {
        "details": "Returns a descriptive name for a collection of NFTokens.",
        "returns": {
          "_name": "Representing name."
        }
      },
      "ownerOf(uint256)": {
        "details": "Returns the address of the owner of the NFT. NFTs assigned to the zero address are considered invalid, and queries about them do throw.",
        "params": {
          "_tokenId": "The identifier for an NFT."
        },
        "returns": {
          "_owner": "Address of _tokenId owner."
        }
      },
      "safeTransferFrom(address,address,uint256)": {
        "details": "Transfers the ownership of an NFT from one address to another address. This function can be changed to payable.",
        "params": {
          "_from": "The current owner of the NFT.",
          "_to": "The new owner.",
          "_tokenId": "The NFT to transfer."
        }
      },
      "safeTransferFrom(address,address,uint256,bytes)": {
        "details": "Transfers the ownership of an NFT from one address to another address. This function can be changed to payable.",
        "params": {
          "_data": "Additional data with no specified format, sent in call to `_to`.",
          "_from": "The current owner of the NFT.",
          "_to": "The new owner.",
          "_tokenId": "The NFT to transfer."
        }
      },
      "setApprovalForAll(address,bool)": {
        "details": "Enables or disables approval for a third party (\"operator\") to manage all of `msg.sender`'s assets. It also emits the ApprovalForAll event.",
        "params": {
          "_approved": "True if the operators is approved, false to revoke approval.",
          "_operator": "Address to add to the set of authorized operators."
        }
      },
      "supportsInterface(bytes4)": {
        "details": "Function to check which interfaces are suported by this contract.",
        "params": {
          "_interfaceID": "Id of the interface."
        },
        "returns": {
          "_0": "True if _interfaceID is supported, false otherwise."
        }
      },
      "symbol()": {
        "details": "Returns an abbreviated name for NFTokens.",
        "returns": {
          "_symbol": "Representing symbol."
        }
      },
      "tokenURI(uint256)": {
        "details": "A distinct URI (RFC 3986) for a given NFT.",
        "params": {
          "_tokenId": "Id for which we want uri."
        },
        "returns": {
          "_0": "URI of _tokenId."
        }
      },
      "transferFrom(address,address,uint256)": {
        "details": "Throws unless `msg.sender` is the current owner, an authorized operator, or the approved address for this NFT. Throws if `_from` is not the current owner. Throws if `_to` is the zero address. Throws if `_tokenId` is not a valid NFT. This function can be changed to payable.",
        "params": {
          "_from": "The current owner of the NFT.",
          "_to": "The new owner.",
          "_tokenId": "The NFT to transfer."
        }
      },
      "transferOwnership(address)": {
        "details": "Allows the current owner to transfer control of the contract to a newOwner.",
        "params": {
          "_newOwner": "The address to transfer ownership to."
        }
      }
    },
    "version": 1
  },
  "userdoc": {
    "kind": "user",
    "methods": {
      "approve(address,uint256)": {
        "notice": "The zero address indicates there is no approved address. Throws unless `msg.sender` is the current NFT owner, or an authorized operator of the current owner."
      },
      "getApproved(uint256)": {
        "notice": "Throws if `_tokenId` is not a valid NFT."
      },
      "safeTransferFrom(address,address,uint256)": {
        "notice": "This works identically to the other function with an extra data parameter, except this function just sets data to \"\""
      },
      "safeTransferFrom(address,address,uint256,bytes)": {
        "notice": "Throws unless `msg.sender` is the current owner, an authorized operator, or the approved address for this NFT. Throws if `_from` is not the current owner. Throws if `_to` is the zero address. Throws if `_tokenId` is not a valid NFT. When transfer is complete, this function checks if `_to` is a smart contract (code size > 0). If so, it calls `onERC721Received` on `_to` and throws if the return value is not `bytes4(keccak256(\"onERC721Received(address,uint256,bytes)\"))`."
      },
      "setApprovalForAll(address,bool)": {
        "notice": "This works even if sender doesn't own any tokens at the time."
      },
      "transferFrom(address,address,uint256)": {
        "notice": "The caller is responsible to confirm that `_to` is capable of receiving NFTs or else they may be permanently lost."
      }
    },
    "version": 1
  }
}